:020000040800F2
:1000000060070020B50100087D2A0008A12500082E
:10001000792A0008BD020008E13000080000000055
:10002000000000000000000000000000052E000895
:100030008508000800000000ED2A00085D2E000879
:10004000CF010008CF010008CF010008CF01000850
:10005000CF010008CF010008CF010008CF01000840
:10006000CF010008CF010008CF010008CF01000830
:10007000CF010008CF010008CF010008CF01000820
:10008000CF010008CF010008CF010008CF01000810
:10009000CF010008CF010008CF010008CF01000800
:1000A000CF010008CF010008CF010008CF010008F0
:1000B000CF010008CF010008CF010008CF010008E0
:1000C000CF010008CF010008CF010008CF010008D0
:1000D000CF010008CF010008CF010008CF010008C0
:1000E000CF010008CF010008CF01000800F002F89E
:1000F00000F050F814A696E8000CB244B344DA4578
:1001000001D100F047F8BAE80F000FA696E83000DA
:10011000A5EB040504EB0607AAEB0704A7F101070A
:100120004FEA15154FEA3414A4F10104AC4201D38F
:1001300000F030F813F0010F18BFFB1A43F0010371
:1001400000F001F8DBE71847903D0000B03D0000EB
:10015000103A24BF78C878C1FAD8520724BF30C8F3
:1001600030C144BF04680C60704700007047000055
:100170000023002400250026103A28BF78C1FBD8B0
:10018000520728BF30C148BF0B6070471FB51FBD65
:1001900010B510BD00F058F81146FFF7F7FF03F057
:1001A0008DF800F076F803B4FFF7F2FF03BC00F01F
:1001B0007DF800000948804709480047FEE7FEE750
:1001C000FEE7FEE7FEE7FEE7FEE7FEE7FEE7FEE707
:1001D00004480549054A064B70470000D12E000827
:1001E000ED0000086001002060070020600300208F
:1001F000600300204FF0000200B513469446964677
:10020000203922BFA0E80C50A0E80C50B1F1200129
:10021000BFF4F7AF090728BFA0E80C5048BF0CC0D7
:100220005DF804EB890028BF40F8042B08BF704735
:1002300048BF20F8022B11F0804F18BF00F8012BA7
:100240007047704770477047754600F02BF8AE4610
:1002500005006946534620F00700854618B020B5D2
:10026000FFF7B6FFBDE820404FF000064FF0000753
:100270004FF000084FF0000BAC46ACE8C009ACE80A
:10028000C009ACE8C009ACE8C00921F007018D46FF
:10029000704710B50446AFF300802046BDE810401B
:1002A000FFF781BF00487047100000200149182067
:1002B000ABBEFEE72600020070470000FFE7FEE746
:1002C00080B58CB0002002908DF810008DF81100E0
:1002D0008DF812008DF813008DF80C008DF80D00CC
:1002E0008DF80E008DF80F008DF828008DF829008C
:1002F0008DF82A008DF82B008DF8240008218DF848
:1003000025108DF826008DF827008DF820008DF837
:1003100021008DF822008DF823008DF81C008DF847
:100320001D008DF81E008DF81F008DF818008DF847
:1003300019008DF81A008DF81B008DF814008DF847
:1003400015108DF816008DF8170002F049F920B944
:10035000FFE74FF0FF300B9050E002F017FA20B9A2
:10036000FFE76FF001000B9048E02020232104AA52
:1003700002F080FA2420272103AA02F07BFA002051
:10038000019003210AAA02F075FA042000900721C7
:1003900009AA02F06FFA08200B2108AA02F06AFAF3
:1003A0001020132107AA02F065FA1420172106AACB
:1003B00002F060FA18201B2105AA02F05BFA0099EE
:1003C000602002F035FA7020012102F031FA019923
:1003D0002A2002F02DFA2920B12102F029FA282042
:1003E000852102F025FA02F0FBF920B9FFE76FF052
:1003F00002000B9002E001200B90FFE70B980CB07D
:1004000080BD000080B588B00790002001908DF875
:100410001B0002F0C7F8014601988DF808109DF8FE
:100420000810B0EB911F6CD0FFE79DF808104FF05B
:10043000FF3000EB91106FF00201084207D1FFE797
:1004400090200DF10E010D2202F046F90EE09DF80C
:1004500008100220B0EB911F07D1FFE794200DF1A7
:100460000E010D2202F038F9FFE7FFE79DF80800C2
:10047000C0F3C100022810D1FFE7079902200870DD
:100480009DF80E209DF80F309DF810009DF811107A
:1004900002F0C0FE079948600BE007990120087040
:1004A0009DF80E009DF80F1002F0F2FE07994860CB
:1004B000FFE79DF81200079908729DF8130007994D
:1004C00048729DF81400079988729DF815000799E5
:1004D000C8729DF81600079908739DF817000799D0
:1004E00048739DF81800079988739DF819000799BB
:1004F000C8739DF81A000799087401208DF81B0035
:10050000FFE79DF81B0008B080BD000080B586B0F5
:10051000059000208DF8130040F22411C2F2000172
:10052000087048708870C87002F0F8F8014640F210
:100530008000C2F20000017000788008C007C8B9CE
:10054000FFE705994868097840F22412C2F20002D8
:10055000039202F00FFE03990598027A00F1090355
:10056000402002F06BF8812002F0F6F801208DF8AF
:10057000130045E040F28000C2F20000007800095C
:10058000C007C8B9FFE705994868097840F2241206
:10059000C2F20002029202F0EDFD02990598027A81
:1005A00000F10903422002F049F8822002F0D4F859
:1005B00001208DF8130022E040F28000C2F200001A
:1005C00000788009C007C8B9FFE70599486809782D
:1005D00040F22412C2F20002019202F0CBFD019916
:1005E0000598027A00F10903442002F027F88420DC
:1005F00002F0B2F801208DF81300FFE7FFE7FFE7F4
:100600009DF8130006B080BD80B584B000208DF841
:100610000F00FFE79DF80F00072800F3A180FFE718
:1006200000F030FB40F22811C2F20001086000F037
:1006300029FB40F27C01C2F200010860FFE740F6AE
:100640000040C4F201004FF4007100F0D7FA0146F7
:100650000020029089B9FFE740F22810C2F20000A2
:100660000068811C40F27C00C2F200000268002099
:10067000914288BF01200290FFE70298C00740B175
:10068000FFE700F0FFFA40F27C01C2F200010860CF
:10069000D5E7282002F08CFE40F60040C4F20100AD
:1006A0004FF4007100F0AAFA68B9FFE79DF80F0057
:1006B000C0F10701012000FA01F19DF80E00884306
:1006C0008DF80E000CE09DF80F00C0F1070101202D
:1006D00000FA01F19DF80E0008438DF80E00FFE7C7
:1006E00000F0D0FA40F22811C2F20001086000F0D8
:1006F000C9FA40F27C01C2F200010860FFE740F64F
:100700000040C4F201004FF4007100F077FA014696
:100710000020019089B1FFE740F22810C2F20000EA
:100720000068811C40F27C00C2F2000002680020D8
:10073000914288BF01200190FFE70198C00740B1B6
:10074000FFE700F09FFA40F27C01C2F2000108606E
:10075000D5E7FFE79DF80F0001308DF80F0059E74E
:100760009DF80E0004B080BD80B58CB000200290D2
:100770008DF82F000A900990089007904FF40071AF
:100780000691079101210391089102210A91099094
:1007900040F60040C4F20100059007A9049100F062
:1007A0009DF8029A0598069900F054FA142000F07A
:1007B00073F8039A0598069900F04CFA1E2002F08F
:1007C000F7FD029B039A049905980893099200F09B
:1007D00085F8282002F0ECFD0598069900F00EFA45
:1007E00090B9FFE7502002F0E3FD40F60040C4F26C
:1007F00001004FF4007100F001FA20B1FFE7012081
:100800008DF82F00FFE7FFE700F03CFA40F22811D7
:10081000C2F20001086000F035FA40F27C01C2F239
:1008200000010860FFE740F60040C4F201004FF409
:10083000007100F0E3F901460020019089B1FFE763
:1008400040F22810C2F200000068811C40F27C00D7
:10085000C2F2000002680020914288BF012001908E
:10086000FFE70198C00740B1FFE700F00BFA40F244
:100870007C01C2F200010860D5E79DF82F000CB0A2
:1008800080BD00007047000081B0EFF3108072B6A9
:100890000090FFE7FEE7000080B584B0039000F011
:1008A000F1F90290039801900198013048B1FFE7F7
:1008B00040F20400C2F2000001780198084401905F
:1008C000FFE7FFE700F0DEF90299401A019988423C
:1008D00001D2FFE7F6E704B080BD000090B00F90B2
:1008E0000E9100200D900990FFE70E9800680D9979
:1008F000C840002800F07F81FFE70D990120884063
:100900000C900E9800680C9908400B900B980C996D
:10091000884240F06C81FFE70E98406805900028FF
:1009200051D0FFE7059801283AD0FFE70598022843
:100930003FD0FFE7059803285FD0FFE7059811280F
:1009400032D0FFE70598122838D0FFE7059800213C
:10095000C1F21101884236D0FFE705980021C1F2AB
:10096000120188422FD0FFE705980021C1F2210132
:10097000884228D0FFE705980021C1F22201884271
:1009800021D0FFE705980021C1F2310188421AD039
:10099000FFE705980021C1F23201884213D02FE011
:1009A0000E98C06809902CE00E98C0680430099039
:1009B00027E00E98C0680830099022E00E98C068C1
:1009C0000C3009901DE00E98806818B9FFE70420EC
:1009D000099011E00E988068012806D1FFE70820F1
:1009E00009900C980F99086105E0082009900C986F
:1009F0000F994861FFE7FFE703E00020099000E05E
:100A0000FFE70B98FF2803D8FFE70F98049003E057
:100A10000F9804300490FFE7049808900B98FF2883
:100A200004D8FFE70D988000039006E00D996FF061
:100A30001F0000EB81000390FFE7039807900898E0
:100A40000068079A0F219140884309999140084313
:100A5000089908600E98C079C006002840F1C68049
:100A6000FFE7FFE741F21800C4F20200016841F01D
:100A700001010160006800F0010006900698FFE7A0
:100A80000D9820F003000821C4F2010140580A909B
:100A90000D9800F0030081000F2000FA01F10A9880
:100AA00088430A900F9840F60001C4F20101884281
:100AB00003D1FFE70020029026E00F9840F60041A6
:100AC000C4F20101884203D1FFE70120019018E040
:100AD0000F9841F20001C4F20101884203D1FFE7FF
:100AE000022000900AE00F9941F20042C4F2010294
:100AF0000420914208BF03200090FFE70098019076
:100B0000FFE701980290FFE702980D9901F00301B9
:100B1000890000FA01F10A9808430A900A980D9991
:100B200021F003010822C4F2010288500E98807956
:100B3000C006002809D5FFE70B9A40F20841C4F22D
:100B4000010108681043086008E00B9A40F2084170
:100B5000C4F20101086890430860FFE70E988079AD
:100B60008006002809D5FFE70B9A40F20C41C4F239
:100B7000010108681043086008E00B9A40F20C413C
:100B8000C4F20101086890430860FFE70E9880797D
:100B90008007002809D5FFE70B9A40F20441C4F210
:100BA000010108681043086008E00B9A40F2044114
:100BB000C4F20101086890430860FFE70E9880794D
:100BC000C00748B1FFE70B9A40F20041C4F20101AF
:100BD00008681043086008E00B9A40F20041C4F234
:100BE0000101086890430860FFE7FFE7FFE70D9801
:100BF00001300D9079E610B07047000082B001908E
:100C0000ADF8021001988068BDF80210084204D0C7
:100C1000FFE701208DF8010003E000208DF80100BE
:100C2000FFE79DF8010002B07047000083B002901A
:100C3000ADF806100298C0680090009ABDF8060052
:100C400002EA0001904340EA01400299086103B0C2
:100C50007047000082B00190ADF802108DF80120BD
:100C60009DF8010028B1FFE7BDF802000199086175
:100C700005E0BDF80200000401990861FFE702B039
:100C80007047000040F25C10C2F20000006870473C
:100C900040F20400C2F20000027840F25C11C2F29D
:100CA00000010868104408607047000080B542F2F7
:100CB0000001C4F20201086840F01000086003203F
:100CC00000F08CF80F2000F005F800F03BF8002051
:100CD00080BD000080B582B0009040F20000C2F2FA
:100CE0000000006840F20401C2F200010A784FF4EB
:100CF0007A71B1FBF2F1B0FBF1F001F05BFA20B1D7
:100D0000FFE701208DF8070018E000980F280DD8A4
:100D1000FFE700994FF0FF30002200F045F80098FF
:100D200040F20801C2F20001086003E001208DF8E2
:100D3000070003E000208DF80700FFE79DF807009B
:100D400002B080BD83B0FFE741F21800C4F2020098
:100D5000016841F001010160006800F001000290AB
:100D60000298FFE7FFE741F21C00C4F202000168AD
:100D700041F080510160006800F0805001900198BE
:100D8000FFE7FFE70421C4F2010108680090009822
:100D900020F0E0600090009840F000700090009813
:100DA0000860FFE703B0704780B586B08DF8170084
:100DB000049103920020029002F094F902909DF9B0
:100DC0001700019002980499039A01F059FE014618
:100DD000019802F08FF906B080BD000080B582B0A6
:100DE0000190019802F0A8F902B080BD80B584B0EE
:100DF00002900191029820B9FFE701208DF80F00C1
:100E00001BE1019842F20001C4F20201096801F0FD
:100E10000701884216D9FFE742F20000C4F202003F
:100E2000016821F00701019A11430160006800F098
:100E300007000199884204D0FFE701208DF80F00D8
:100E4000FBE0FFE702980078800700282AD5FFE73B
:100E5000029800784007002809D5FFE741F2040115
:100E6000C4F20201086840F4E0600860FFE70298FD
:100E700000780007002809D5FFE741F20401C4F219
:100E80000201086840F460500860FFE741F2040185
:100E9000C4F20201086820F0F000029A9268104340
:100EA0000860FFE702980078C007002860D0FFE7DD
:100EB0000298406801280ED1FFE741F20000C4F219
:100EC000020000688003002804D4FFE701208DF8A9
:100ED0000F00B2E021E00298406802280ED1FFE73F
:100EE00041F20000C4F2020000688001002804D42E
:100EF000FFE701208DF80F009FE00DE041F20000B8
:100F0000C4F2020000688007002804D4FFE7012033
:100F10008DF80F0091E0FFE7FFE741F20401C4F212
:100F20000201086820F00300029A5268104308602A
:100F3000FFF7A8FE0090FFE741F20400C4F20200B0
:100F4000006800F00C0002994968B0EB810F0ED0E8
:100F5000FFE7FFF797FE0099401A41F28931884276
:100F600004D3FFE703208DF80F0066E0E4E7FFE716
:100F7000019842F20001C4F20201096801F0070180
:100F8000884216D2FFE742F20000C4F20200016874
:100F900021F00701019A11430160006800F0070089
:100FA0000199884204D0FFE701208DF80F0044E04A
:100FB000FFE702980078400700280CD5FFE741F2D0
:100FC0000401C4F20201086820F4E060029AD268C9
:100FD00010430860FFE702980078000700280DD54D
:100FE000FFE741F20401C4F20201086820F46050F6
:100FF000029A126940EAC2000860FFE700F022F896
:1010000041F20401C4F202010968C9B20A0943F6B7
:10101000B661C0F60001895CC84040F20001C2F22E
:101020000001086040F20800C2F200000068FFF70B
:1010300051FE00208DF80F00FFE79DF80F0004B06F
:1010400080BD000086B000200590049003900290BF
:10105000019041F20400C4F2020000680590059876
:1010600000F00C000146009100283FD0FFE70098F7
:10107000042804D0FFE70098082806D037E041F2A2
:101080000020C0F27A00019037E00598C0F3834158
:1010900043F6C660C0F60000405C02909DF8160062
:1010A000C007C0B1FFE741F20400C4F202000068CB
:1010B000C0F3404143F6D660C0F60000405C0490A7
:1010C000029841F20021C0F27A0148430499B0FB32
:1010D000F1F0039007E0029840F60011C0F23D01E4
:1010E00048430390FFE70398019006E0FFE741F2D1
:1010F0000020C0F27A000190FFE7019806B0704727
:1011000080B586B00490049820B9FFE701208DF8DF
:1011100017002EE304980078C007002800F0AE8086
:10112000FFE741F20400C4F20200006800F00C0086
:10113000042813D0FFE741F20400C4F20200006863
:1011400000F00C0008281BD1FFE741F20400C4F2B4
:1011500002000068C003002812D5FFE741F200003A
:10116000C4F2020000688003002808D5FFE7049855
:10117000406820B9FFE701208DF81700F9E27CE014
:10118000FFE704984068B0F5803F09D1FFE741F2DE
:101190000001C4F20201086840F48030086032E0C7
:1011A0000498406868B9FFE741F20001C4F2020107
:1011B000086820F480300860086820F48020086007
:1011C00020E004984068B0F5A02F0DD1FFE741F270
:1011D0000001C4F20201086840F480200860086839
:1011E00040F4803008600CE041F20001C4F20201DA
:1011F000086820F480300860086820F480200860C7
:10120000FFE7FFE7FFE7FFE704984068D0B1FFE79B
:10121000FFF738FD0390FFE741F20000C4F202003F
:101220000068800300280CD4FFE7FFF72BFD03992B
:10123000401A652804D3FFE703208DF8170098E2D1
:10124000EAE719E0FFF71EFD0390FFE741F2000017
:10125000C4F202000068800300280CD5FFE7FFF706
:1012600011FD0399401A652804D3FFE703208DF888
:1012700017007EE2EAE7FFE7FFE7FFE70498007860
:101280008007002840F18D80FFE741F20400C4F29E
:101290000200006810F00C0F13D0FFE741F20400C9
:1012A000C4F20200006800F00C00082829D1FFE712
:1012B00041F20400C4F202000068C003002820D4F8
:1012C000FFE741F20000C4F2020000688007002836
:1012D00009D5FFE704980069012804D0FFE7012041
:1012E0008DF8170045E241F20001C4F202010868DE
:1012F00020F0F800049A526940EAC2000860FFE753
:101300004EE00498006958B3FFE70021C4F242217F
:1013100001200860FFF7B6FC0390FFE741F20000F0
:10132000C4F202000068800700280CD4FFE7FFF732
:10133000A9FC0399401A032804D3FFE703208DF882
:10134000170016E2EAE741F20001C4F20201086860
:1013500020F0F800049A526940EAC20008601EE0DA
:101360000021C4F2422100200860FFF78BFC0390AB
:10137000FFE741F20000C4F2020000688007002885
:101380000CD5FFE7FFF77EFC0399401A032804D32E
:10139000FFE703208DF81700EBE1EAE7FFE7FFE73F
:1013A000FFE7049800780007002848D5FFE7049875
:1013B000806918B3FFE740F28041C4F24221012066
:1013C0000860FFF75FFC0390FFE741F22400C4F2DE
:1013D00002000068800700280CD4FFE7FFF752FCEA
:1013E0000399401A032804D3FFE703208DF8170060
:1013F000BFE1EAE7012001F07BFB1FE040F2804102
:10140000C4F2422100200860FFF73CFC0390FFE794
:1014100041F22400C4F202000068800700280CD5C5
:10142000FFE7FFF72FFC0399401A032804D3FFE7D7
:1014300003208DF817009CE1EAE7FFE7FFE7049837
:1014400000784007002840F1D880FFE700208DF8A1
:10145000070041F21C00C4F202000068C00000282E
:1014600013D4FFE7FFE741F21C00C4F20200016859
:1014700041F080510160006800F0805000900098B9
:10148000FFE701208DF80700FFE747F20000C4F2F4
:1014900000000068C005002822D4FFE747F20001E1
:1014A000C4F20001086840F480700860FFF7EAFBAE
:1014B0000390FFE747F20000C4F200000068C00597
:1014C00000280CD4FFE7FFF7DDFB0399401A6528DD
:1014D00004D3FFE703208DF817004AE1EAE7FFE7AE
:1014E000FFE70498C068012809D1FFE741F2200115
:1014F000C4F20201086840F00100086031E004987D
:10150000C06868B9FFE741F22001C4F2020108682F
:1015100020F001000860086820F0040008601FE067
:101520000498C06805280DD1FFE741F22001C4F2FC
:101530000201086840F004000860086840F00100FB
:1015400008600CE041F22001C4F20201086820F0BA
:1015500001000860086820F004000860FFE7FFE76A
:10156000FFE7FFE70498C068E0B1FFE7FFF78AFBF9
:101570000390FFE741F22000C4F2020000688007F8
:1015800000280ED4FFE7FFF77DFB0399401A41F2D4
:101590008931884204D3FFE703208DF81700E8E083
:1015A000E8E71BE0FFF76EFB0390FFE741F2200046
:1015B000C4F202000068800700280ED5FFE7FFF79D
:1015C00061FB0399401A41F28931884204D3FFE755
:1015D00003208DF81700CCE0E8E7FFE79DF807004F
:1015E000012809D1FFE741F21C01C4F20201086899
:1015F00020F080500860FFE7FFE70498C0690028EA
:1016000000F0B380FFE741F20400C4F2020000687A
:1016100000F00C00082800F08280FFE70498C06901
:1016200002285CD1FFE76021C4F24221002008605B
:10163000FFF728FB0390FFE741F20000C4F202002D
:101640000068800100280CD5FFE7FFF71BFB03991A
:10165000401A032804D3FFE703208DF8170088E021
:10166000EAE70498006AB0F5803F0CD1FFE741F249
:101670000401C4F20201086820F40030049A926860
:1016800010430860FFE741F20401C4F20201086858
:1016900020F47410049B1A6A5B6A1A4310430860B2
:1016A0006021C4F2422101200860FFF7EBFA0390A9
:1016B000FFE741F20000C4F2020000688001002848
:1016C0000CD4FFE7FFF7DEFA0399401A032804D38E
:1016D000FFE703208DF817004BE0EAE71EE06021EA
:1016E000C4F2422100200860FFF7CCFA0390FFE724
:1016F00041F20000C4F202000068800100280CD50D
:10170000FFE7FFF7BFFA0399401A032804D3FFE766
:1017100003208DF817002CE0EAE7FFE724E00498A7
:10172000C069012804D1FFE701208DF8170020E0EF
:1017300041F20400C4F2020000680290029800F432
:1017400080300499096A884208D1FFE7029800F4C2
:1017500070100499496A884204D0FFE701208DF88F
:10176000170006E0FFE7FFE7FFE700208DF817000E
:10177000FFE79DF8170006B080BD000081B0009023
:10178000009890F8510001B07047000080B584B017
:101790000290029820B9FFE701208DF80F006EE05B
:1017A0000298406A60B9FFE702984068B0F5827F0E
:1017B00001D1FFE703E002990020C861FFE705E0DF
:1017C00002990020086102994861FFE70299002010
:1017D0008862029890F8510040B9FFE70299002012
:1017E00081F85000029800F04FF8FFE702990220BC
:1017F00081F8510002980168086820F040000860F4
:10180000029A019211685068D2F808C0D36800F4B7
:1018100082700CF4044C604403F4006318441369B0
:1018200003F002031844536903F001031844936959
:1018300003F400731844D36903F038031844136A9F
:1018400003F080031843926A02F4005210430860C8
:10185000029801688269042000EA124048600298F8
:101860000168C86920F40060C861029900204865D9
:10187000029A012182F851108DF80F00FFE79DF8C0
:101880000F0004B080BD000080B58AB00990002030
:1018900008900790069005900998006843F20001AF
:1018A000C4F20101884237D1FFE7FFE741F2180097
:1018B000C4F20200016841F480510160006800F444
:1018C000805004900498FFE7FFE741F21800C4F24B
:1018D0000200016841F004010160006800F00400AA
:1018E00003900398FFE7A0200590022006900320B4
:1018F000089040F60000C4F20100019005A9029191
:10190000FEF7ECFF01980299402205920022069210
:101910000792FEF7E3FFFFE70AB080BD80B588B00D
:1019200006900591ADF812200393069890F85100A7
:10193000012804D0FFE702208DF81F0011E106986E
:101940004068B0F5827F16D1FFE70698806890B9AD
:10195000FFE70699042081F851000698059ABDF822
:1019600012300399EC46CCF80010114600F050FA02
:101970008DF81F00F5E0FFF785F90290059820B17A
:10198000FFE7BDF8120020B9FFE701208DF81F0026
:10199000E7E0FFE7069890F85000012804D1FFE740
:1019A00002208DF81F00DCE00699012081F850002C
:1019B000FFE7FFE70699042081F85100069900200F
:1019C00048650599069A9163BDF81210069A9187A9
:1019D000BDF81210069AD187069908630699888681
:1019E0000699C8860699086406994864069880682E
:1019F000B0F5004F0DD1FFE706980168086820F0A8
:101A00004000086006980168086820F4804008607B
:101A1000FFE706980068006800F04000402807D003
:101A2000FFE706980168086840F040000860FFE79B
:101A30000698C068D0BBFFE7FFE70698C08FA0B349
:101A4000FFE7069800688068C00778B1FFE706984E
:101A50000068007B0699896B08700699886B0130D5
:101A600088630699C88F0138C8871DE0FFF70AF917
:101A70000299401A0399884204D3FFE70398013082
:101A800018B9FFE7039870B9FFE70699012081F8BC
:101A90005100FFE70699002081F85000FFE703207E
:101AA0008DF81F005DE0FFE7C7E739E0FFE7069824
:101AB000C08FA0B3FFE7069800688068C00778B1C0
:101AC000FFE706980068C0680699896B0880069948
:101AD000886B023088630699C88F0138C8871DE07B
:101AE000FFF7D0F80299401A0399884204D3FFE720
:101AF0000398013018B9FFE7039870B9FFE706991A
:101B0000012081F85100FFE70699002081F850007C
:101B1000FFE703208DF81F0023E0FFE7C7E7FFE79B
:101B200006980399029A01F001F820B1FFE706999F
:101B300020204865FFE70699012081F85100FFE762
:101B40000699002081F85000FFE70698406D20B10B
:101B5000FFE701208DF81F0003E000208DF81F0033
:101B6000FFE79DF81F0008B080BD000080B588B079
:101B700006900591ADF812200393FFF783F80290C9
:101B8000BDF81200ADF80600069890F85100012843
:101B900004D0FFE702208DF81F0034E1059820B142
:101BA000FFE7BDF8120020B9FFE701208DF81F0004
:101BB00029E1FFE7069890F85000012804D1FFE7DB
:101BC00002208DF81F001EE10699012081F85000C7
:101BD000FFE7FFE70699032081F8510006990020EE
:101BE00048650599069A1163BDF81210069A918608
:101BF000BDF81210069AD1860699886306998887DF
:101C00000699C8870699486406990864069880680A
:101C1000B0F5004F0DD1FFE706980168086820F085
:101C20004000086006980168086840F48040086039
:101C3000FFE706980068006800F04000402807D0E1
:101C4000FFE706980168086840F040000860FFE779
:101C50000698C068B0F5006F51D1FFE7069840685C
:101C600028B1FFE7BDF8060001280ED1FFE706986E
:101C70000168006B0088C8600699086B0230086331
:101C80000699C88E0138C886FFE7FFE70698C08E20
:101C9000A0B3FFE7069800688068800700280ED58B
:101CA000FFE706980168006B0088C8600699086B1A
:101CB000023008630699C88E0138C8861DE0FEF719
:101CC000E1FF0299401A0399884204D3FFE7039881
:101CD000013018B9FFE7039870B9FFE706990120B2
:101CE00081F85100FFE70699002081F85000FFE7D6
:101CF00003208DF81F0086E0FFE7C7E750E0069855
:101D0000406828B1FFE7BDF8060001280ED1FFE7C3
:101D100006980168006B007808730699086B01301B
:101D200008630699C88E0138C886FFE7FFE7069862
:101D3000C08EA0B3FFE7069800688068800700287F
:101D40000ED5FFE706980168006B007808730699C6
:101D5000086B013008630699C88E0138C8861DE0FB
:101D6000FEF790FF0299401A0399884204D3FFE7D7
:101D70000398013018B9FFE7039870B9FFE7069997
:101D8000012081F85100FFE70699002081F85000FA
:101D9000FFE703208DF81F0035E0FFE7C7E7FFE707
:101DA00006980399029A00F01DFF20B1FFE70699FB
:101DB00020204865FFE70698806870B9FFE7FFE7D5
:101DC0000020009006980068C0680090069800689F
:101DD000806800900098FFE7FFE70699012081F8EE
:101DE0005100FFE70699002081F85000FFE70698B0
:101DF000406D20B1FFE701208DF81F0003E00020B7
:101E00008DF81F00FFE79DF81F0008B080BD00009F
:101E100080B58CB0DDF838C00A9009910892ADF811
:101E20001E3001200390FEF72DFF04900A9890F8D1
:101E300051008DF817000A9840680690BDF81E0002
:101E4000ADF81C009DF81700012812D0FFE7069896
:101E5000B0F5827F09D1FFE70A98806828B9FFE7CB
:101E60009DF81700042804D0FFE702208DF82F000A
:101E70009BE1099838B1FFE7089820B1FFE7BDF86A
:101E80001E0020B9FFE701208DF82F008DE1FFE74C
:101E90000A9890F85000012804D1FFE702208DF83D
:101EA0002F0082E10A99012081F85000FFE7FFE747
:101EB0000A9890F85100042805D0FFE70A990520F8
:101EC00081F85100FFE70A990020486508990A9AAD
:101ED0009163BDF81E100A9AD187BDF81E100A9AA8
:101EE000918709990A9A1163BDF81E100A9AD18642
:101EF000BDF81E100A9A91860A9908640A994864E6
:101F00000A980068006800F04000402807D0FFE70A
:101F10000A980168086840F040000860FFE70A98E6
:101F2000C068B0F5006F40F08180FFE70A98406814
:101F300028B1FFE7BDF81C0001280ED1FFE70A9881
:101F40000168006B0088C8600A99086B023008635A
:101F50000A99C88E0138C886FFE7FFE70A98C18E44
:101F60000120019039B9FFE70A98C08F002818BFF7
:101F700001200190FFE70198C007002855D0FFE736
:101F80000A98006880688007002818D5FFE70A983B
:101F9000C08EA0B1FFE70398012810D1FFE70A988F
:101FA0000168006B0088C8600A99086B02300863FA
:101FB0000A99C88E0138C88600200390FFE70A9866
:101FC00000688068C007A8B1FFE70A98C08F88B191
:101FD000FFE70A980068C0680A99896B08800A9927
:101FE000886B023088630A99C88F0138C88701203E
:101FF0000390FFE7FEF746FE0499401A0E998842C7
:1020000012D3FFE70E98013070B1FFE70A99012063
:1020100081F85100FFE70A99002081F85000FFE79E
:1020200003208DF82F00C0E098E782E00A9840680E
:1020300028B1FFE7BDF81C0001280ED1FFE70A9880
:102040000168006B007808730A99086B0130086317
:102050000A99C88E0138C886FFE7FFE70A98C18E43
:102060000120009039B9FFE70A98C08F002818BFF7
:1020700001200090FFE70098C007002858D0FFE734
:102080000A98006880688007002818D5FFE70A983A
:10209000C08EA0B1FFE70398012810D1FFE70A988E
:1020A0000168006B007808730A99086B01300863B7
:1020B0000A99C88E0138C88600200390FFE70A9865
:1020C00000688068C007A8B1FFE70A98C08F88B190
:1020D000FFE70A980068C0680A99896B08700A9936
:1020E000886B013088630A99C88F0138C88701203E
:1020F0000390FFE7FEF7C6FD0499401A0E99884247
:1021000004D3FFE70E98013018B9FFE70E9870B9B5
:10211000FFE70A99012081F85100FFE70A990020A2
:1021200081F85000FFE703208DF82F003DE095E790
:10213000FFE70A980E99049A00F054FD68B1FFE792
:102140000A9920204865FFE70A99002081F850008D
:10215000FFE701208DF82F0027E00A98806870B90A
:10216000FFE7FFE7002002900A980068C06802902D
:102170000A980068806802900298FFE7FFE70A99D2
:10218000012081F85100FFE70A99002081F85000F2
:10219000FFE70A98406D20B1FFE701208DF82F007E
:1021A00003E000208DF82F00FFE79DF82F000CB012
:1021B00080BD000080B582B00190019800F024FE3F
:1021C00002B080BD85B003900291FFE7039890F8BC
:1021D0003C00012804D1FFE702208DF813005BE0EA
:1021E0000399012081F83C00FFE7FFE703990220F3
:1021F00081F83D00039800684068019003980068EA
:1022000080680090019820F07000019002980168A9
:102210000198084301900198039909684860039860
:10222000006842F60041C4F20101884218D0FFE77D
:1022300003980068B0F1804F12D0FFE70398006860
:1022400040F20041C4F20001884209D0FFE7039840
:10225000006840F60001C4F2000188420ED1FFE799
:10226000009820F080000090029841680098084390
:1022700000900098039909688860FFE7039901209E
:1022800081F83D00FFE70399002081F83C00FFE75B
:1022900000208DF81300FFE79DF8130005B070478C
:1022A00080B582B00090009820B9FFE701208DF83A
:1022B00007003FE0009890F83D0040B9FFE7009923
:1022C000002081F83C00009800F038F8FFE7009902
:1022D000022081F83D00009951F8040B00F0FAFD4E
:1022E0000099012081F84600FFE70099012081F85C
:1022F0003E00009981F83F00009981F84000009964
:1023000081F84100FFE7FFE70099012081F84200D2
:10231000009981F84300009981F84400009981F800
:102320004500FFE70099012081F83D0000208DF86D
:102330000700FFE79DF8070002B080BD82B0019062
:102340000198006842F60041C4F20101884210D1B0
:10235000FFE7FFE741F21800C4F20200016841F410
:1023600000610160006800F4006000900098FFE7E1
:10237000FFE702B07047000083B00190019890F829
:102380003D00012804D0FFE701208DF80B0041E05B
:102390000199022081F83D000198006842F6004151
:1023A000C4F20101884218D0FFE701980068B0F13B
:1023B000804F12D0FFE70198006840F20041C4F25C
:1023C0000001884209D0FFE70198006840F600014B
:1023D000C4F20001884212D1FFE7019800688068CA
:1023E00000F0070000900098062807D0FFE701984A
:1023F0000168086840F001000860FFE706E0019806
:102400000168086840F001000860FFE700208DF8CF
:102410000B00FFE79DF80B0003B0704780B586B056
:102420000490039100208DF80B00FFE7049890F8CA
:102430003C00012804D1FFE702208DF81700ABE033
:102440000499012081F83C00FFE7FFE7049902208E
:1024500081F83D000498006880680190019820F0A0
:1024600077000190019820F47F4001900198049931
:1024700009688860039800680090002872D0FFE720
:10248000009810286ED0FFE7009820286AD0FFE758
:102490000098302866D0FFE70098402855D0FFE725
:1024A0000098502837D0FFE70098602840D0FFE719
:1024B000009870280BD0FFE70098B0F5805F05D03A
:1024C000FFE70098B0F5005F16D052E055E00498A1
:1024D0000068039B5A689968DB6800F07FFD0498E8
:1024E000006880680190019840F0770001900198A1
:1024F00004990968886040E004980068039B5A6862
:102500009968DB6800F06AFD04980168886840F407
:102510008040886031E004980068039A5168D2686E
:1025200000F08CFD04980068502100F071FD24E05B
:1025300004980068039A5168D26800F0A7FD0498D7
:102540000068602100F064FD17E004980068039AB9
:102550005168D26800F072FD04980068402100F0D4
:1025600057FD0AE0049800680399096800F050FDDF
:1025700003E001208DF80B00FFE70499012081F8AA
:102580003D00FFE70499002081F83C00FFE79DF83B
:102590000B008DF81700FFE79DF8170006B080BD0F
:1025A000FFE7FEE780B584B040F60000C4F201000A
:1025B0000290102101910022FEF74CFBB02000F0A8
:1025C00069FB00F045FB0199024602988DF80F2047
:1025D0000122FEF73FFB9DF80F0004B080BD000014
:1025E00080B582B040F60000C4F201001021012243
:1025F000FEF730FB0A208DF80600FFE740F284006A
:10260000C2F20000FFF7BAF8012804D1FFE7012069
:102610008DF807000EE09DF8060001388DF80600E1
:10262000FFE79DF806000028E8DCFFE700208DF8B2
:102630000700FFE79DF8070002B080BD80B586B0B7
:102640008DF8170004918DF80F20029340F60000DA
:10265000C4F201000090102101910022FEF7FAFA65
:102660009DF8170000F016FB0498042100F022FBEF
:102670009DF80F0000F00EFB02989DF80F1000F07F
:1026800019FB009801990122FEF7E4FA06B080BD1B
:1026900080B584B08DF80F0040F60000C4F2010050
:1026A0000290102101910022FEF7D4FA032000F0DD
:1026B000F1FA9DF80F0000F0EDFA00F0C9FA019967
:1026C000024602988DF80E200122FEF7C3FA9DF80B
:1026D0000E0004B080BD000080B586B08DF81700F4
:1026E00004918DF80F2040F60000C4F20100019023
:1026F000102102910022FEF7ADFA9DF8170000F0BC
:10270000C9FA04989DF80F1000F0B2FA01980299E6
:102710000122FEF79FFA06B080BD000080B584B0AC
:1027200040F60000C4F20100029010210191002245
:10273000FEF790FAA02000F0ADFA00F089FA0199B6
:10274000024602988DF80F200122FEF783FA9DF8C9
:102750000F0004B080BD000080B584B08DF80F007C
:1027600040F60000C4F20100019010210291002205
:10277000FEF770FA9DF80F0000F08CFA01980299AC
:102780000122FEF767FA04B080BD000080B582B078
:102790000F20802100F04CF80A208DF80600FFE79A
:1027A0000E20FFF775FF00F0E000802804D1FFE75E
:1027B00001208DF807000EE09DF8060001388DF825
:1027C0000600FFE79DF806000028E9DCFFE700208F
:1027D0008DF80700FFE79DF8070002B080BD0000FC
:1027E00080B582B00F20002100F022F80A208DF879
:1027F0000600FFE70E20FFF74BFF10F0E00F04D1BB
:10280000FFE701208DF807000EE09DF80600013873
:102810008DF80600FFE79DF806000028EADCFFE7D8
:1028200000208DF80700FFE79DF8070002B080BD8B
:1028300080B584B08DF80F008DF80E1040F60000C2
:10284000C4F201000190102102910022FEF702FA69
:10285000022000F01FFA9DF80F0000F01BFA9DF80F
:102860000E0000F017FA019802990122FEF7F2F922
:1028700004B080BD80B584B08DF80F008DF80E10C7
:10288000029240F60000C4F2010000901021019174
:102890000022FEF7DFF9022000F0FCF99DF80F009E
:1028A00000F0F8F902989DF80E109DF80F20891A93
:1028B0000131C9B200F0FEF9009801990122FEF73A
:1028C000C9F904B080BD000080B590B000200F9021
:1028D0000E900D900C90FFE741F21800C4F2020038
:1028E000016841F020010160006800F020000B90B9
:1028F0000B98FFE7FFE741F21800C4F202000168FD
:1029000041F004010160006800F004000A900A9898
:10291000FFE7FFE741F21800C4F20200016841F04E
:1029200008010160006800F0080009900998FFE7BD
:1029300040F60000C4F20100029010210191012232
:102940000392FEF787F940F60040C4F201000690BA
:102950004FF46071089100220492FEF77BF9019B0D
:102960000298039A04990C930D920E9102210591FD
:102970000F910CA90791FDF7B1FFDDF80CC0049B86
:10298000059A06980799DDF820E0CDF830E0CDF8FB
:1029900034C00E930F92FDF7A1FF10B080BD000070
:1029A00080B582B040F28400C2F20000019043F290
:1029B0000001C4F2010101604FF482714160002105
:1029C0008160C160016141614FF40072826138220F
:1029D000C2610162416281620A21C162FEF7D6FED4
:1029E00018B1FFE7FDF750FFFFE702B080BD000020
:1029F00080B588B00021009107910691059104915E
:102A00000391029140F2DC00C2F20000019042F614
:102A10000042C4F2010202604722426081604FF628
:102A2000FF72C260016141618161FFF739FC18B139
:102A3000FFE7FDF729FFFFE74FF48050049040F2D5
:102A4000DC00C2F2000004A9FFF7E8FC18B1FFE7C0
:102A5000FDF71AFFFFE700200290039040F2DC0030
:102A6000C2F2000002A9FFF7ADFB18B1FFE7FDF7C6
:102A70000BFFFFE708B080BDFFE7FEE7FFE7FEE7DB
:102A800088B0079006910592079800F0070004901F
:102A90000498C0F10700052803D3FFE70420019044
:102AA00004E00498C0F107000190FFE7019803904B
:102AB00004980430062803D8FFE70020009003E0C4
:102AC000049803380090FFE7009802900698039955
:102AD000012202FA01F101390840029B9840059950
:102AE0009A40013A1140084308B07047704700000F
:102AF00082B00190019840F20001C2F20001096821
:102B0000C90844F6D352C1F26202A1FB022189092D
:102B100048430090FFE700BFFFE70098411E009187
:102B20000028F8D1FFE702B07047000080B586B0FA
:102B300004900391029204984068B0F5827F13D10B
:102B4000FFE704988068B0F5004F06D0FFE70498CF
:102B50008068B0F5806F07D1FFE7049801680868C6
:102B600020F040000860FFE704984068B0F5827FDD
:102B70001BD1FFE704988068B0F5806F15D1FFE79F
:102B80000498039B02996A4611600121002200F01B
:102B9000A3F848B1FFE70499486D40F0200048656C
:102BA00003208DF8170019E014E00498039B0299A4
:102BB0006A4611608021002200F08EF848B1FFE7DC
:102BC0000499486D40F02000486503208DF81700F7
:102BD00004E0FFE700208DF81700FFE79DF81700DD
:102BE00006B080BD80B586B004900391029204982F
:102BF000039B02996A4611600221012200F06CF8E1
:102C000048B1FFE70499486D40F020004865032073
:102C10008DF8170017E00498039B02996A4611602B
:102C20008021002200F058F848B1FFE70499486D70
:102C300040F02000486503208DF8170003E00020D5
:102C40008DF81700FFE79DF8170006B080BD000063
:102C500080B582B040F28400C2F200000DF107019D
:102C600001220A23FEF75AFE9DF8070002B080BD3C
:102C700080B582B001908DF8031001999DF8032072
:102C800040F28400C2F200000A23FEF747FE02B0C1
:102C900080BD000080B582B08DF8070040F284004E
:102CA000C2F200000DF1070101220A23FEF75EFFC8
:102CB00002B080BD80B582B001908DF803100199FB
:102CC0009DF8032040F28400C2F200000A23FEF7C0
:102CD0004DFF02B080BD000080B58AB0DDF830C085
:102CE000089007918DF81B20059305980190FDF73A
:102CF000C9FF024601980C99891A08440390FDF710
:102D0000C1FF0290039840F20001C2F2000109687D
:102D1000C1F3CB3148430490FFE70898006880680E
:102D200007990840401AB0FA80F040099DF81B103E
:102D300088425ED0FFE705980130002858D0FFE7B1
:102D4000FDF7A0FF0299401A0399884204D2FFE7D9
:102D50000398002842D1FFE708980168486820F0EE
:102D6000E000486008984068B0F5827F13D1FFE723
:102D700008988068B0F5004F06D0FFE70898806893
:102D8000B0F5806F07D1FFE708980168086820F068
:102D900040000860FFE70898806AB0F5005F0FD137
:102DA000FFE7FFE708980168086820F40050086012
:102DB00008980168086840F400500860FFE7FFE7E2
:102DC0000899012081F85100FFE70899002081F857
:102DD0005000FFE703208DF827000EE0049818B993
:102DE000FFE700200390FFE7049801380490FFE715
:102DF00093E700208DF82700FFE79DF827000AB031
:102E000080BD00007047000080B582B0009000983F
:102E10000138B0F1807F03D3FFE70120019019E072
:102E2000009801384EF21401CEF2000108604FF014
:102E3000FF300F2100F05EF94EF21801CEF20001D2
:102E4000002008604EF21002CEF20002072111604D
:102E50000190FFE7019802B080BD000080B5FDF74A
:102E600017FF80BD80B590B006A800902821FDF71F
:102E7000C1F90098002305930493039302930193EF
:102E8000012206924FF48031079108930A920222A0
:102E90000D920E914FF4E0110F91FEF731F918B138
:102EA000FFE7FDF7F1FCFFE70F20019002210291FF
:102EB000002003904FF480620492059001A8FDF772
:102EC00095FF18B1FFE7FDF7DFFCFFE710B080BD0D
:102ED0007047000083B00290019102980068009052
:102EE000029842F60041C4F20101884215D0FFE782
:102EF0000298B0F1804F10D0FFE7029840F20041F5
:102F0000C4F20001884208D0FFE7029840F60001B1
:102F1000C4F2000188420AD1FFE7009820F0700057
:102F2000009001984168009808430090FFE70298DC
:102F300042F60041C4F20101884215D0FFE7029831
:102F4000B0F1804F10D0FFE7029840F20041C4F288
:102F50000001884208D0FFE7029840F60001C4F261
:102F6000000188420AD1FFE7009820F440700090E9
:102F70000198C168009808430090FFE7009820F08E
:102F800080000199496908430090009802990860FF
:102F9000019880680299C862019800680299886265
:102FA000029842F60041C4F20101884205D1FFE7D0
:102FB0000198006902990863FFE7029901204861BE
:102FC00002980069C00730B1FFE70299086920F054
:102FD00001000861FFE703B07047000085B004906E
:102FE000039102920193049880680090009820F465
:102FF0007F40009003980299019A41EA022101431F
:1030000000980843009000980499886005B07047C4
:1030100083B002900191029880680090009820F09F
:103020007000009001980099084340F0070000905C
:1030300000980299886003B07047000085B0049042
:10304000039102920498006A00900499086A20F0A3
:1030500001000862049880690190019820F0F00056
:1030600001900299019840EA01100190009820F027
:103070000A00009003990098084300900198049971
:10308000886100980499086205B0704785B0049083
:10309000039102920498006A00900499086A20F053
:1030A00010000862049880690190019820F4704033
:1030B00001900299019840EA01300190009820F0B7
:1030C000A00000900399009840EA01100090019838
:1030D0000499886100980499086205B0704700005F
:1030E000FFE7FEE74EF60C50CEF200000068C0F39A
:1030F0000220704782B08DF8070000919DF907000B
:1031000000280AD4FFE7009800019DF907104EF24D
:103110000042CEF2000288540BE0009800019DF8B6
:10312000071001F00F014EF61452CEF2000288543F
:10313000FFE702B07047000083B00290029800F0F1
:10314000070000904EF60C51CEF200010868019085
:1031500001984FF6FF02104001900198009A40EA52
:1031600002200022C0F2FA52104301900198086038
:1031700003B0704784B003908DF80B1001920020CB
:103180008DF803009DF80B0002282ED1FFE703986D
:103190000199C8700398000A0390039801998870F8
:1031A0000398000A0390039800F003008DF80300D1
:1031B0000398C0000390039800F0E0009DF803100E
:1031C00008448DF803009DF8030008308DF80300D3
:1031D0009DF8030000F0EB00019948700398000A85
:1031E000039003980199087011E0019900208870FC
:1031F0000199C870039840010390039801994870A1
:103200000398000A0390039801990870FFE704B03F
:103210007047000084B08DF80F008DF80E108DF807
:103220000D208DF80C300020029001909DF80C00CC
:1032300000F003008DF803009DF80C0040098DF8A4
:1032400002009DF80D00C000019001989DF8021049
:103250000844019001988000019001989DF80310A6
:103260000844019001980002019001989DF80F1008
:103270000844019001980002019001989DF80E10F9
:103280000844019001980290029804B07047000031
:1032900083B08DF80B008DF80A10002001909DF886
:1032A0000B00C000009000989DF80A1000EB511030
:1032B000009000980190019803B0704780B582B0EB
:1032C00000200190FDF7F2FCFFF7CCFDFFF7FCFAC0
:1032D000FFF766FBFFF78CFBFCF7F2FF40F2DC0028
:1032E000C2F20000FFF748F8FFE7FFE740F22C10BA
:1032F000C2F20000FDF786F860B3FFE740F6004039
:10330000C4F201004FF48071FDF790FC40F22C10E4
:10331000C2F20000406801281BD1FFE740F22C10E8
:10332000C2F20000C07A012809D1FFE740F6004050
:10333000C4F2010080210122FDF78CFC08E040F678
:103340000040C4F2010080210022FDF783FCFFE76A
:1033500001E0FFE7CAE700F045F840F24810C2F28A
:1033600000000090012101700221416004210172DE
:1033700040F27801C2F200010978417240F277010F
:10338000C2F200010978817240F27501C2F20001B7
:103390000978C17240F27401C2F200010978017328
:1033A000FDF7B4F84FF47A70FDF776FA9DE7000068
:1033B00081B0ADF8020040F2DC00C2F2000001680A
:1033C00000204862FFE740F2DC00C2F20000006823
:1033D000406ABDF80210884201D2FFE7F3E701B06E
:1033E0007047000080B58CB0FDF7BEF9002800F0F2
:1033F000B980FFE7FDF708F940F27501C2F200015C
:103400000B910870FDF700F940F27401C2F200015F
:1034100008910870FDF7F8F840F27801C2F2000157
:1034200009910870FDF7F0F840F27701C2F200014F
:103430000A910870FDF7E8F8DDF820C0099B0A9AA8
:1034400086460B9840F27601C2F2000181F800E056
:1034500000789CF800C060441B781844127810442F
:10346000097888427DD1FFE740F27800C2F200007F
:10347000007800F0CBFB019040F27700C2F2000030
:10348000007800F0FFF9002202920023C4F2240326
:10349000039300F09BF800F067F80146019800F0F4
:1034A0005DFA014640F24010C2F20000016000687F
:1034B0000021C4F2101100F0BDFB0021C4F2A001F4
:1034C00000F0AEFA4FF0844100F048FA40F24411A7
:1034D000C2F200010591086040F27500C2F20000DE
:1034E000007800F093FB049040F27400C2F20000F8
:1034F000007800F0C7F9029A039B00F067F800F02B
:1035000033F80146049800F029FA0146059840F284
:103510007002C2F200021160006800F043FB0599DE
:10352000024640F27A00C2F2000002700968069179
:10353000007800EB8000400000F050FB0146069848
:1035400007910021C4F2201100F074FB079900F0EC
:103550003DFC00F027FB40F27901C2F20001087047
:10356000FFE7FFE70CB080BD21F0004201F000430F
:10357000A2F16052B2F5801F28BFD2F17F6C0BD947
:103580005FEA001C43EAC20242EB507018BF70476A
:1035900028BF20F001007047B2F5801FBCBF18465D
:1035A00070474FEA410C1CF5001F02D2084600F09C
:1035B00008BC70B500F07DF900000089FFF7F6BF88
:1035C0004FF00040A0F58000704700002DE9C04199
:1035D00030B4DFF8A8C23CEA111418BF3CEA131457
:1035E00000F0F0801CEA111481EA030544EAD57466
:1035F00018BF1CEA131500F0CB80A4EB050404F1FE
:103600007F7404F500344FF0004545EAC12145EAD6
:10361000C32341EA505143EA52534FEAC0204FEAD4
:10362000C222994208BF904200F0A0804FEA136581
:103630000FF24816765D4FEA134506FB05F7C7F112
:10364000807706FB07F74FEAD737A7FB0368764278
:10365000A7FB06CEC8F5803838BFA8F1010807FBE4
:1036600008E6A6FB028C4FF0000EE6FB03CED8F175
:1036700000086FEA0C0C5CF1000C6FEA0E0E4EF1C4
:10368000004EA6FB0C584FF00007E6FB0E87A1FB8F
:1036900008C6A0FB07CE16EB0E064FF0000545F15D
:1036A0000005E1FB076515F1E04E7EBFA4F580340F
:1036B0005FEA46066D4116F1800745F100054FEAC5
:1036C000172747EA05674FEA15254FEA0666A6F170
:1036D000DE46B6F1805F20D9384605EBC47124F090
:1036E000010C01EB0C11BCF1FE6F02D8F0BCBDE87F
:1036F000008124425CBF01F5801E9EEAC47F02D493
:10370000F0BCBDE80081244200F13980A1F1C04144
:10371000F0BCBDE8004100F01AB94FEAD02040EA01
:1037200041504FEAD1214FEAD22242EA43524FEAB6
:10373000D323A7FB028607FB036605FB02661EEA8E
:103740000E0F58BFA6EB0056B6EB00564FEA520ECE
:103750004EEAC37E18EB0E0E56EB530EBCD518EB9B
:1037600002085E417F1C55F10005B5E74FF4801556
:103770004FF000074FF000064FF00008ACE701F1F2
:10378000C04101F000414FF00000F0BCBDE80081F5
:103790000CEA131511EA0C1F00D00CE013EA0C1F01
:1037A00000F025804FF0000081EA030101F00041A4
:1037B000F0BCBDE80081F0BCBDE8004181EA030136
:1037C00000F0C5B8F0BCBDE8004170B500F071F87C
:1037D000097EFC3E00F007B84FF0000081EA0301CB
:1037E00001F00041704781EA030100F0B0B8F0BC7D
:1037F000BDE8004122494FF000007047FFFDFBF992
:10380000F7F5F4F2F0EEEDEBE9E8E6E4E3E1E0DE13
:10381000DDDBDAD8D7D5D4D3D1D0CFCDCCCBCAC885
:10382000C7C6C5C4C2C1C0BFBEBDBCBBBAB9B8B7AC
:10383000B6B5B4B3B2B1B0AFAEADACABAAA9A8A89F
:10384000A7A6A5A4A3A3A2A1A09F9F9E9D9C9C9B6D
:103850009A99999897979695959493939291919018
:103860008F8F8E8E8D8C8C8B8B8A898988888787A9
:103870008685858484838382828181800000FF071E
:103880000000F87F10F0004248BF4042B0FA80F3D9
:1038900010FA03F10AD0C3F11D0303F5806302EBB4
:1038A00003524FEA415002EBD12170474FF0000024
:1038B00070470EF1020E2EF0030E5EF8046B3642D6
:1038C00005D4012A43EB030515F5001F12D8012882
:1038D00041EB010C1CF5001F0CD80ED14FEAD17C36
:1038E0000CEB4C0C0CF1020C15F5001F08BF4CEB57
:1038F000D37C04E04FF0080C01E04FEAD37C0CEBE2
:103900004C0526FA05F606F00706B6F1040C06D2B9
:103910000EEB860CBDE870404CF0010C6047DFE810
:103920000CF0090B02024FF00041A1F500214FF00D
:10393000000070BD19461046012851EB010418BF64
:10394000D4F5001484BF002001F0004170BD0808C8
:10395000A0F500114FEA31017047000090EA010F15
:1039600048BF81F0004100F13882421A3CBF801A02
:1039700089184FEAD052A2EBD1534FF07F4C1CEA8A
:10398000410F18BF9CEA026F00F03B804FF0004CE3
:103990004CEA00204CEA012121FA03FC10EB0C0C4C
:1039A0001ED202F1FF325FEA1C2040EBC25038BF4A
:1039B00070471CF07F0F4FEA400C18BFBCF17F4FDF
:1039C00038BF7047C3F12003994008BF20F00100C1
:1039D000BCF17F4F38BF7047A0F1C04000F0F1B993
:1039E0004FEA3C00000A40EBC25028BF1CF0FF0F1A
:1039F0004FEA400CE6D018BFBCF17F4F38BF70478C
:103A0000EAE79CEA026F05D010EA5C0F08BF00F0FD
:103A10000040704710B500F08EF900BF64FBBE3E59
:103A20004FF47F0C1CEAD0121EBF1CEAD11392EA9D
:103A30000C0F93EA0C0F00F0858090EA010F48BF4D
:103A400042F4807240F4000C41F400002CF07F41FD
:103A500020F07F4000B5A2EB030281420FF2081C68
:103A6000ACEB504E9EF800E0C0F100004FEA4E0E65
:103A700000FB0EFC38BF49004FEA2C1C0CFB0EF378
:103A80004FEACE1E0EEB635E4FEA112C0EFB0CFCD0
:103A90004FEAC1214FEA1C5300FB031102F5FA0261
:103AA0004FEA112C0EFB0CFC4FEA01314FEADC4CC3
:103AB00000FB0C1142EB2242C14228BF09184CEB1B
:103AC00003335DF804EB10EB410143EBC250B2F558
:103AD0007C0F38BF704729D512F0F00F1CBF00F1E2
:103AE000C04000F000407047008182838485868753
:103AF00088898B8C8D8E8F919293959697999A9CAD
:103B00009D9FA0A2A3A5A7A8AAACAEB0B2B3B5B71B
:103B1000B9BCBEC0C2C5C7C9CCCED1D4D7D9DCDFF1
:103B2000E2E6E9ECF0F3F7FAFE0000004FEA400CA1
:103B30000CF1807CBCF17E4F28BF7047B0F1C040D3
:103B400000F03FB90CEAD11390EA010F48BF42F4EC
:103B50008072624538BF634507D213F47F0F16D0D9
:103B600080EA010000F00040704710B500F0E3F873
:103B7000097EFC3E00F005B880EA010000F000403C
:103B8000704780EA010000F0004000F01AB912F41A
:103B90007F0F04BF0248704780EA010000F011B9AE
:103BA0000000C07F41000B0ED3F19E0208D950F4F3
:103BB00000034FEA032323FA02F048BF4042704754
:103BC00010B500F0B8F800BF49922480002070477B
:103BD0006FF0004282EA20007047000010F00041C0
:103BE00048BF4042B0FA80F310FA03F2C3F19D03DC
:103BF0000BD051EAC35101EB1220530638BF704776
:103C000000F1010008BF20F001007047B0FA80F316
:103C100010FA03F2C3F19D030AD0D90501EB12207B
:103C2000530638BF704700F1010008BF20F00100C3
:103C3000704700004FF47F0C1CEAD0121EBF1CEA34
:103C4000D11392EA0C0F93EA0C0F00F0478090EA30
:103C5000010F48BF42F480724FF0004C4CEA002044
:103C60004CEA012102EB0302A0FB0113A2F50002C2
:103C7000002918BF43F001035B0028BF4FEA33035C
:103C800042EB22425FEA132C4CEBC2502EBFBCEB3E
:103C9000436FB2F57C0F70474FEA036CBCF1004FE5
:103CA00008BF20F00100B2F57C0F38BF70470BD57C
:103CB00082F0FF0212F5803FC8BF704700F1C0409C
:103CC000D8BF00F00040704700F5000C5FEA4C0CD4
:103CD00048BF7047B0F1C04000F073B80CEAD11390
:103CE00090EA010F48BF42F48072624538BF6345D5
:103CF00004D280EA010000F00040704710B500F0E7
:103D00001AF800BF8900013E00F007B800F009B8BA
:103D10005FEA410C5FEA1C6C08D080EA010000F009
:103D200050B85FEA400C5FEA1C6CF6D14FF00040DF
:103D3000A0F5800070470EF1020E2EF0030E5EF823
:103D4000044B244204D44FEA4102B2F17F4F11D810
:103D50004FEA4003B3F17F4F0CD80ED14FEAD07C2D
:103D60000CEB4C0C0CF1020CB2F17F4F08BF4CEB8A
:103D7000D17C04E04FF0080C01E04FEAD17C0CEB61
:103D80004C0324FA03F404F00704B4F1040C06D243
:103D90000EEB840CBDE810404CF0010C6047DFE8EE
:103DA0000CF0070802024FF00040A0F5800010BDA3
:103DB0000846420018BFD2F1807288BF00F0004070
:103DC00010BDFF2141EAD050C005704790EA010FB5
:103DD00048BF81F000413FF5C8AD421A04D882F0D7
:103DE0000042A0EB020011444FEAD052A2EBD153A3
:103DF0004FF07F4C1CEA410F18BF9CEA026F4AD07B
:103E00004FF0004C4CEA00204CEA012121FA03FC5F
:103E1000B0EB0C0C0FD412F0FE0F36D05FEA4C0062
:103E20001DD5001240EBC25038BF70471CF03F0F49
:103E300018BF70470BE05FEA1C20A2F1010240EBC3
:103E4000C25038BF70471CF07F0F18BF7047C3F1D6
:103E50002003994014BF401E20F0010070474FEA34
:103E60001223800808BF7047B0FA80FCA2EB0C0256
:103E7000CCF1280C60FA0CF093EA122F04BF00EB8F
:103E8000C25070474FEAC3707047130A5FEADC10F4
:103E900008BF7047F6E79CEA026F04D010EA5C0F97
:103EA00008BF0020704710B5FFF745FF40DFF63E22
:103EB00081F0004070470000000000000000010297
:103EC00003040607080902030405060708090A0B8C
:103ED0000C0D0E0F10100102F83E0008000000202B
:103EE0001000000050010008083F000810000020EA
:103EF000500700007001000800127A000100000065
:083F00001000000000000000A9
:04000005080000ED02
:00000001FF
