:020000040800F2
:1000000048080020B50100082D3F00084D350008C4
:10001000293F000815040008A1490008000000005D
:100020000000000000000000000000002D43000858
:1000300091070008000000009D3F0008B54300083C
:10004000CF010008CF010008CF010008CF01000850
:10005000CF010008CF010008CF010008CF01000840
:10006000CF010008CF010008CF010008CF01000830
:10007000CF010008CF010008CF010008CF01000820
:10008000CF010008CF010008CF010008CF01000810
:10009000CF010008CF010008CF010008CF01000800
:1000A000CF010008CF010008CF010008CF010008F0
:1000B000CF010008CF010008CF010008CF010008E0
:1000C000CF010008CF010008CF010008CF010008D0
:1000D000CF010008CF010008CF010008CF010008C0
:1000E000CF010008CF010008CF01000800F002F89E
:1000F00000F050F814A696E8000CB244B344DA4578
:1001000001D100F047F8BAE80F000FA696E83000DA
:10011000A5EB040504EB0607AAEB0704A7F101070A
:100120004FEA15154FEA3414A4F10104AC4201D38F
:1001300000F030F813F0010F18BFFB1A43F0010371
:1001400000F001F8DBE718471054000030540000BD
:10015000103A24BF78C878C1FAD8520724BF30C8F3
:1001600030C144BF04680C60704700007047000055
:100170000023002400250026103A28BF78C1FBD8B0
:10018000520728BF30C148BF0B6070471FB51FBD65
:1001900010B510BD00F058F81146FFF7F7FF04F056
:1001A00011FD00F076F803B4FFF7F2FF03BC00F096
:1001B0007DF800000948804709480047FEE7FEE750
:1001C000FEE7FEE7FEE7FEE7FEE7FEE7FEE7FEE707
:1001D00004480549054A064B7047000041440008A1
:1001E000ED000008480200204808002048040020D4
:1001F000480400204FF0000200B51346944696468E
:10020000203922BFA0E80C50A0E80C50B1F1200129
:10021000BFF4F7AF090728BFA0E80C5048BF0CC0D7
:100220005DF804EB890028BF40F8042B08BF704735
:1002300048BF20F8022B11F0804F18BF00F8012BA7
:100240007047704770477047754600F02BF8AE4610
:1002500005006946534620F00700854618B020B5D2
:10026000FFF7B6FFBDE820404FF000064FF0000753
:100270004FF000084FF0000BAC46ACE8C009ACE80A
:10028000C009ACE8C009ACE8C00921F007018D46FF
:10029000704710B50446AFF300802046BDE810401B
:1002A000FFF781BF00487047100000200149182067
:1002B000ABBEFEE7260002007047000080B584B0A8
:1002C000029000200190029800688068C00770B317
:1002D000FFE702980168886820F00100886001F05B
:1002E0009FF80190FFE7029800688068C007E8B1B6
:1002F000FFE701F095F80199401A032815D3FFE7AD
:10030000029800688068C00770B1FFE70299886AA8
:1003100040F0100088620299C86A40F00100C8628B
:1003200001208DF80F0006E0FFE7DCE7FFE7002083
:100330008DF80F00FFE79DF80F0004B080BD0000AE
:1003400080B584B00290002001900090029800686F
:100350008068C007002849D1FFE7029801688868D3
:1003600040F00100886040F20000C2F20000006826
:100370004DF68361C4F21B31A0FB0110800C00908C
:10038000FFE7009820B1FFE7009801380090F8E7F8
:1003900001F046F80190FFE7029800688068C00706
:1003A00018BBFFE701F03CF80199401A03281BD362
:1003B000FFE7029800688068C007A0B9FFE70299CC
:1003C000886A40F0100088620299C86A40F0010013
:1003D000C862FFE70299002081F82400FFE70120AE
:1003E0008DF80F0006E0FFE7D6E7FFE700208DF865
:1003F0000F00FFE79DF80F0004B080BD80B582B00C
:100400001420019003F000FE0198032103F090FFF7
:1004100002B080BDFFE7FEE780B58CB000200290FF
:100420008DF810008DF811008DF812008DF8130072
:100430008DF80C008DF80D008DF80E008DF80F0072
:100440008DF828008DF829008DF82A008DF82B00F2
:100450008DF8240008218DF825108DF826008DF8E0
:1004600027008DF820008DF821008DF822008DF8EE
:1004700023008DF81C008DF81D008DF81E008DF8EE
:100480001F008DF818008DF819008DF81A008DF8EE
:100490001B008DF814008DF815108DF816008DF8DE
:1004A000170003F073F820B9FFE74FF0FF300B900F
:1004B00050E003F041F920B9FFE76FF001000B9025
:1004C00048E02020232104AA03F0AAF924202721B0
:1004D00003AA03F0A5F90020019003210AAA03F062
:1004E0009FF904200090072109AA03F099F9082038
:1004F0000B2108AA03F094F91020132107AA03F096
:100500008FF91420172106AA03F08AF918201B215D
:1005100005AA03F085F90099602003F05FF97020C7
:10052000012103F05BF901992A2003F057F92920F2
:10053000B12103F053F92820852103F04FF903F08E
:1005400025F920B9FFE76FF002000B9002E00120CF
:100550000B90FFE70B980CB080BD000080B588B011
:100560000790002001908DF81B0002F0F1FF01467A
:1005700001988DF808109DF80810B0EB911F6CD011
:10058000FFE79DF808104FF0FF3000EB91106FF07F
:100590000201084207D1FFE790200DF10E010D2264
:1005A00003F070F80EE09DF808100220B0EB911FE8
:1005B00007D1FFE794200DF10E010D2203F062F840
:1005C000FFE7FFE79DF80800C0F3C100022810D143
:1005D000FFE70799022008709DF80E209DF80F3064
:1005E0009DF810009DF8111004F098FA07994860E2
:1005F0000BE00799012008709DF80E009DF80F1080
:1006000004F0CAFA07994860FFE79DF812000799BD
:1006100008729DF81300079948729DF81400079915
:1006200088729DF815000799C8729DF81600079901
:1006300008739DF81700079948739DF818000799EB
:1006400088739DF819000799C8739DF81A000799D7
:10065000087401208DF81B00FFE79DF81B0008B00F
:1006600080BD000080B586B0059000208DF8130095
:1006700040F2F011C2F20001087048708870C87032
:1006800003F022F8014640F27800C2F20000017047
:1006900000788008C007C8B9FFE70599486809785D
:1006A00040F2F012C2F20002039204F0E7F903995B
:1006B0000598027A00F10903402002F095FF81209D
:1006C00003F020F801208DF8130045E040F2780097
:1006D000C2F2000000780009C007C8B9FFE7059919
:1006E0004868097840F2F012C2F20002029204F067
:1006F000C5F902990598027A00F10903422002F037
:1007000073FF822002F0FEFF01208DF8130022E02B
:1007100040F27800C2F2000000788009C007C8B932
:10072000FFE705994868097840F2F012C2F200022A
:10073000019204F0A3F901990598027A00F10903E6
:10074000442002F051FF842002F0DCFF01208DF8EC
:100750001300FFE7FFE7FFE79DF8130006B080BD39
:1007600080B582B08DF807008DF806109DF807005F
:1007700003F04AFC8DF805009DF807009DF8051070
:100780009DF80620914304F00DF902B080BD0000F1
:100790007047000081B0EFF3108072B60090FFE761
:1007A000FEE7000085B00390029100208DF807005D
:1007B0000090FFE7039890F82400012804D1FFE798
:1007C00002208DF81300C3E00399012081F8240072
:1007D000FFE7FFE702984068062812D8FFE7039872
:1007E0000068406B029A1168526802EB8202053A77
:1007F0001F23934098439140084303990968486335
:1008000029E0029840680C2812D8FFE70398006896
:10081000006B029A1168526802EB8202233A1F238E
:10082000934098439140084303990968086311E095
:1008300003980068C06A029A1168526802EB82024B
:10084000413A1F2393409843914008430399096814
:10085000C862FFE7FFE7029800680A2812D3FFE7A3
:1008600003980068C06802990A68896802EB42022E
:100870001E3A07239340984391400843039909681F
:10088000C86010E003980068006902990A688968E6
:1008900002EB420207239340984391400843039997
:1008A00009680861FFE702980068102805D0FFE793
:1008B00002980068112840D1FFE70398006842F2CF
:1008C0000041C4F2010188422DD1FFE7039800687E
:1008D00080680002002825D4FFE703980168886833
:1008E00040F40000886002980068102819D1FFE7E2
:1008F00040F20000C2F2000000684DF68361C4F2CD
:100900001B31A0FB0110800C00EB80004000009028
:10091000FFE7009820B1FFE7009801380090F8E762
:10092000FFE7FFE708E00399886A40F0200088624B
:1009300001208DF80700FFE7FFE7FFE7039900209C
:1009400081F82400FFE79DF807008DF81300FFE70A
:100950009DF8130005B0704781B0009000980068C2
:10096000C06C01B07047000080B588B006900020D0
:100970008DF81700049003900290069820B9FFE7C5
:1009800001208DF81F00F4E00698806830B1FFE781
:100990000698007D08B1FFE7FFE7FFE70698806A49
:1009A00050B9FFE706990020C862069981F8240033
:1009B000069800F0E3F8FFE70698FFF77FFC8DF854
:1009C00017000698806AC006002800F1C480FFE77F
:1009D0009DF81700002840F0BE80FFE70698806A67
:1009E00040F0020020F48850069988620699486811
:1009F000CA691043097B40EA410103980843039008
:100A0000069881680120B1F5807F019008D0FFE74A
:100A1000069880680138B0FA80F040090190FFE73D
:100A200001990498CA0740F48071002A18BF08464B
:100A300004900698007D01281ED1FFE70698007BF0
:100A400070B9FFE7069881694EF20000CFF6FF709B
:100A500000EB41300499084340F4006004900AE040
:100A60000699886A40F0200088620699C86A40F0BA
:100A70000100C862FFE7FFE706980068406820F4BD
:100A80006940049908430699096848600698006817
:100A900080684FF2FD71CFF6E17108400399084379
:100AA000069909688860069881680120B1F5807F01
:100AB000009008D0FFE7069880680138B0FA80F00F
:100AC00040090090FFE7009800F00100002818BFDF
:100AD0004FF48070B0F5807F09D1FFE70698016977
:100AE0000020CFF6F07000EB01500290FFE706986F
:100AF0000068C06A20F470000299084306990968EA
:100B0000C86206980068806840F6FE61CFF61F71E3
:100B10000840039988420CD1FFE706990020C8627B
:100B20000698806A40F0010020F002000699886271
:100B300010E00698806A40F0100020F0020006994C
:100B400088620699C86A40F00100C86201208DF8E9
:100B50001700FFE708E00699886A40F010008862F5
:100B600001208DF81700FFE79DF817008DF81F0092
:100B7000FFE79DF81F0008B080BD000080B588B079
:100B80000790002006900590049003900798006855
:100B900042F20041C4F2010188422AD1FFE7FFE797
:100BA00041F21800C4F20200016841F400710160D2
:100BB000006800F4007002900298FFE7FFE741F23E
:100BC0001800C4F20200016841F0080101600068E9
:100BD00000F0080001900198FFE702200390032035
:100BE000049040F60040C4F2010003A900F044FA6A
:100BF000FFE708B080BD000080B58CB00A90099175
:100C0000002008900790069000F00AFC08900A98CF
:100C100000688068C00500280FD5FFE70A99886A38
:100C200040F020008862FFE70A99002081F8240044
:100C3000FFE701208DF82F001CE10A98006840684A
:100C4000C005002838D4FFE70A980068C06A10F48D
:100C5000700F31D1FFE7FFE70A980068006880074E
:100C6000002828D4FFE70998013018B3FFE7099856
:100C700040B1FFE700F0D4FB0899401A0999884277
:100C800017D9FFE70A9800680068800700280FD48A
:100C9000FFE70A99886A40F004008862FFE70A9932
:100CA000002081F82400FFE703208DF82F00E1E009
:100CB000FFE7FFE7D0E7B0E040F20000C2F200003B
:100CC00000680490022000F05FFC01460498B0FB2D
:100CD000F1F005900A980068006944F62411C2F208
:100CE000924108422BD1FFE70A980068C06844F699
:100CF0002411C0F29201084221D1FFE70A9800684E
:100D00000169002042F29242C1F24922114203904D
:100D10000DD1FFE70A980068C06842F29241C0F224
:100D200049010840B0FA80F040090390FFE70398BA
:100D3000C1072920002918BF1420029039E00A9821
:100D40000068006942F29241C1F2492108420CD187
:100D5000FFE70A980068C168012042F29242C0F29F
:100D60004902114201901CD0FFE70A98006801690E
:100D7000002049F24922C0F22402114200900DD114
:100D8000FFE70A980068C06849F24921C0F22401CF
:100D90000840B0FA80F040090090FFE70098019009
:100DA000FFE70198C107FC20002918BF54200290DA
:100DB000FFE70598029948430690FFE707980699D0
:100DC000884229D2FFE70998013008B3FFE7099864
:100DD00040B1FFE700F024FB0899401A09998842C6
:100DE00015D9FFE70798069988420FD2FFE70A99BD
:100DF000886A40F004008862FFE70A99002081F8C1
:100E00002400FFE703208DF82F0033E0FFE7FFE722
:100E1000079801300790D1E7FFE70A9801686FF063
:100E2000120008600A99886A40F4007088620A9883
:100E30000068806800F46020B0F5602F16D1FFE7ED
:100E40000A98007B90B9FFE70A99886A20F48070BD
:100E500088620A98806AC004002806D4FFE70A99CD
:100E6000886A40F001008862FFE7FFE700208DF804
:100E70002F00FFE79DF82F000CB080BD80B584B037
:100E8000029000208DF80700FFE7029890F82400F8
:100E9000012804D1FFE702208DF80F00C5E0029978
:100EA000012081F82400FFE7FFE70298FFF748FAE6
:100EB0008DF807009DF80700002840F0AA80FFE7A2
:100EC0000298806A40F4807040F2012188430299C0
:100ED00088620298006842F60001C4F2010188426B
:100EE00009D1FFE742F20440C4F20100006810F4A7
:100EF000702F03D018E00020B0B9FFE70299886A8C
:100F000020F480108862029800684068400500283C
:100F100009D5FFE70298806A40F4805020F4005021
:100F200002998862FFE72CE00299886A40F48010F9
:100F300088620298006842F20041C4F201018842CE
:100F400009D0FFE70298006842F60001C4F20101EF
:100F5000884209D1FFE742F20440C4F20100006870
:100F60004005002803D40BE0012048B9FFE70298B0
:100F7000806A40F4805020F4005002998862FFE7B4
:100F8000FFE70298806AC004002806D5FFE70299AF
:100F9000C86A20F00600C86203E002990020C86217
:100FA000FFE7FFE70299002081F82400FFE702989D
:100FB00001686FF00200086002980068806800F421
:100FC0006020B0F5602F1CD1FFE70298006842F660
:100FD0000001C4F20101884209D1FFE742F2044056
:100FE000C4F20100006810F4702F03D009E0002063
:100FF00038B9FFE702980168886840F4A00088606B
:1010000006E002980168886840F480108860FFE775
:1010100006E0FFE70299002081F82400FFE7FFE7E0
:101020009DF807008DF80F00FFE79DF80F0004B052
:1010300080BD000080B584B0039000F0F1F902900B
:10104000039801900198013048B1FFE740F2040095
:10105000C2F200000178019808440190FFE7FFE721
:1010600000F0DEF90299401A0199884201D2FFE7A7
:10107000F6E704B080BD000090B00F900E91002004
:101080000D900990FFE70E9800680D99C840002860
:1010900000F07F81FFE70D99012088400C900E98A9
:1010A00000680C9908400B900B980C99884240F00E
:1010B0006C81FFE70E9840680590002851D0FFE74B
:1010C000059801283AD0FFE7059802283FD0FFE7AE
:1010D000059803285FD0FFE70598112832D0FFE775
:1010E0000598122838D0FFE705980021C1F21101B8
:1010F000884236D0FFE705980021C1F212018842EC
:101100002FD0FFE705980021C1F22101884228D0A5
:10111000FFE705980021C1F22201884221D0FFE7B4
:1011200005980021C1F2310188421AD0FFE70598E5
:101130000021C1F23201884213D02FE00E98C0681E
:1011400009902CE00E98C0680430099027E00E98B2
:10115000C0680830099022E00E98C0680C300990F1
:101160001DE00E98806818B9FFE70420099011E08F
:101170000E988068012806D1FFE7082009900C9896
:101180000F99086105E0082009900C980F994861B3
:10119000FFE7FFE703E00020099000E0FFE70B987E
:1011A000FF2803D8FFE70F98049003E00F9804305E
:1011B0000490FFE7049808900B98FF2804D8FFE7F5
:1011C0000D988000039006E00D996FF01F0000EB72
:1011D00081000390FFE70398079008980068079A3A
:1011E0000F2191408843099991400843089908606C
:1011F0000E98C079C006002840F1C680FFE7FFE7DF
:1012000041F21800C4F20200016841F001010160DE
:10121000006800F0010006900698FFE70D9820F0A6
:1012200003000821C4F2010140580A900D9800F013
:10123000030081000F2000FA01F10A9888430A9008
:101240000F9840F60001C4F20101884203D1FFE784
:101250000020029026E00F9840F60041C4F2010100
:10126000884203D1FFE70120019018E00F9841F276
:101270000001C4F20101884203D1FFE7022000907F
:101280000AE00F9941F20042C4F2010204209142A7
:1012900008BF03200090FFE700980190FFE7019846
:1012A0000290FFE702980D9901F00301890000FA0E
:1012B00001F10A9808430A900A980D9921F0030158
:1012C0000822C4F2010288500E988079C0060028D6
:1012D00009D5FFE70B9A40F20841C4F20101086802
:1012E0001043086008E00B9A40F20841C4F2010183
:1012F000086890430860FFE70E9880798006002810
:1013000009D5FFE70B9A40F20C41C4F201010868CD
:101310001043086008E00B9A40F20C41C4F201014E
:10132000086890430860FFE70E98807980070028DE
:1013300009D5FFE70B9A40F20441C4F201010868A5
:101340001043086008E00B9A40F20441C4F2010126
:10135000086890430860FFE70E988079C00748B19D
:10136000FFE70B9A40F20041C4F201010868104304
:10137000086008E00B9A40F20041C4F201010868DD
:1013800090430860FFE7FFE7FFE70D9801300D90FD
:1013900079E610B07047000082B00190ADF80210FD
:1013A00001988068BDF80210084204D0FFE70120D0
:1013B0008DF8010003E000208DF80100FFE79DF8A3
:1013C000010002B07047000083B00290ADF8061033
:1013D0000298C0680090009ABDF8060002EA000179
:1013E000904340EA01400299086103B07047000051
:1013F00082B00190ADF802108DF801209DF8010037
:1014000028B1FFE7BDF802000199086105E0BDF8C9
:101410000200000401990861FFE702B07047000074
:1014200040F23C20C2F200000068704740F2040025
:10143000C2F20000027840F23C21C2F200010868CA
:10144000104408607047000080B542F20001C4F209
:101450000201086840F010000860032000F08CF8DA
:101460000F2000F005F800F03BF8002080BD0000E0
:1014700080B582B0009040F20000C2F20000006827
:1014800040F20401C2F200010A784FF47A71B1FB14
:10149000F2F1B0FBF1F001F067FC20B1FFE70120B1
:1014A0008DF8070018E000980F280DD8FFE7009985
:1014B0004FF0FF30002200F045F8009840F208019C
:1014C000C2F20001086003E001208DF8070003E08C
:1014D00000208DF80700FFE79DF8070002B080BDEF
:1014E00083B0FFE741F21800C4F20200016841F046
:1014F00001010160006800F0010002900298FFE71E
:10150000FFE741F21C00C4F20200016841F0805183
:101510000160006800F0805001900198FFE7FFE74C
:101520000421C4F2010108680090009820F0E060F6
:101530000090009840F00070009000980860FFE76D
:1015400003B0704780B586B08DF817000491039200
:101550000020029003F04AFA02909DF917000190D2
:1015600002980499039A02F0E3FC0146019803F003
:1015700045FA06B080BD000080B582B001900198A8
:1015800003F05EFA02B080BD80B588B007900020FD
:10159000069005900490039002900798019001280E
:1015A00066D0FFE70198022800F0A580FFE70198C8
:1015B000102840F0B080FFE741F20400C4F20200BE
:1015C0000068039041F20000C4F202000068C0010C
:1015D00000284CD5FFE70398C0F3834145F234500F
:1015E000C0F60000405C04909DF80E00C007F0B10A
:1015F000FFE741F20400C4F202000068C0F340417A
:1016000045F24450C0F60000405C06909DF80E0084
:10161000C00758B1FFE7069941F20020C0F27A00F6
:10162000B0FBF1F0049948430590FFE707E0049808
:1016300040F60011C0F23D0148430590FFE741F23A
:101640000400C4F2020000684002002803D5FFE74E
:10165000059802900AE0059840004AF6AB21CAF6C8
:10166000AA21A0FB011040080290FFE7FFE753E02A
:1016700041F22000C4F2020000680390039800F4D5
:101680004070B0F5807F0AD1FFE79DF80C0080071D
:10169000002804D5FFE74FF4004002902AE00398A9
:1016A00000F44070B0F5007F0DD1FFE741F2240057
:1016B000C4F2020000688007002804D5FFE749F65D
:1016C0004040029015E0039800F44070B0F5407F70
:1016D0000DD1FFE741F20000C4F202000068800370
:1016E000002804D5FFE74FF22440029000E0FFE716
:1016F000FFE7FFE710E000F029FA41F20401C4F22D
:101700000201096801F44042022101EB5231B0FBB1
:10171000F1F0029000E0FFE7029808B080BD000001
:1017200080B586B004900020039002900498007861
:10173000C007002800F0AC80FFE700208DF807000C
:1017400041F21C00C4F202000068C000002813D45B
:10175000FFE7FFE741F21C00C4F20200016841F01C
:1017600080510160006800F0805000900098FFE711
:1017700001208DF80700FFE747F20000C4F20000E7
:101780000068C005002822D4FFE747F20001C4F238
:101790000001086840F480700860FFF741FE039084
:1017A000FFE747F20000C4F200000068C00500280F
:1017B0000CD4FFE7FFF734FE0399401A652804D3E1
:1017C000FFE703208DF817008AE0EAE7FFE741F220
:1017D0002000C4F20200006800F4407002900298F9
:1017E000E0B3FFE702980499496801F44071884228
:1017F00034D0FFE741F22001C4F20201086820F46E
:101800004070029040F24042C4F242220120106037
:1018100000201060029808609DF80800C007E0B141
:10182000FFE7FFF7FDFD0390FFE741F22000C4F260
:1018300002000068800700280ED4FFE7FFF7F0FDE4
:101840000399401A41F28931884204D3FFE703200B
:101850008DF8170044E0E8E7FFE7FFE741F22001D9
:10186000C4F20201086820F44070049A52681043E0
:1018700008609DF80700012809D1FFE741F21C012B
:10188000C4F20201086820F080500860FFE7FFE71B
:1018900004980078800700280CD5FFE741F2040186
:1018A000C4F20201086820F44040049A9268104390
:1018B0000860FFE704980078C00600280CD5FFE711
:1018C00041F20401C4F20201086820F48000049A85
:1018D000D26810430860FFE700208DF81700FFE78B
:1018E0009DF8170006B080BD80B584B002900191CC
:1018F000029820B9FFE701208DF80F001BE1019845
:1019000042F20001C4F20201096801F007018842B5
:1019100016D9FFE742F20000C4F20200016821F08C
:101920000701019A11430160006800F00700019966
:10193000884204D0FFE701208DF80F00FBE0FFE7AD
:1019400002980078800700282AD5FFE702980078DF
:101950004007002809D5FFE741F20401C4F2020163
:10196000086840F4E0600860FFE70298007800072C
:10197000002809D5FFE741F20401C4F2020108681A
:1019800040F460500860FFE741F20401C4F2020134
:10199000086820F0F000029A926810430860FFE7A0
:1019A00002980078C007002860D0FFE702984068DE
:1019B00001280ED1FFE741F20000C4F202000068E6
:1019C0008003002804D4FFE701208DF80F00B2E067
:1019D00021E00298406802280ED1FFE741F20000A2
:1019E000C4F2020000688001002804D4FFE701204F
:1019F0008DF80F009FE00DE041F20000C4F20200FC
:101A000000688007002804D4FFE701208DF80F004C
:101A100091E0FFE7FFE741F20401C4F20201086828
:101A200020F00300029A526810430860FFF7F8FCA8
:101A30000090FFE741F20400C4F20200006800F0E9
:101A40000C0002994968B0EB810F0ED0FFE7FFF759
:101A5000E7FC0099401A41F28931884204D3FFE73C
:101A600003208DF80F0066E0E4E7FFE7019842F2FB
:101A70000001C4F20201096801F00701884216D290
:101A8000FFE742F20000C4F20200016821F0070102
:101A9000019A11430160006800F007000199884233
:101AA00004D0FFE701208DF80F0044E0FFE7029823
:101AB0000078400700280CD5FFE741F20401C4F28A
:101AC0000201086820F4E060029AD26810430860BE
:101AD000FFE702980078000700280DD5FFE741F2E4
:101AE0000401C4F20201086820F46050029A1269ED
:101AF00040EAC2000860FFE700F03AF841F2040152
:101B0000C4F202010968C9B20A0945F21C51C0F6C3
:101B10000001895CC84040F20001C2F20001086087
:101B200040F20800C2F200000068FFF7A1FC0020AC
:101B30008DF80F00FFE79DF80F0004B080BD000096
:101B400040F20000C2F200000068704780B5FFF765
:101B5000F7FF41F20401C4F202010968C1F3C22295
:101B600045F22C51C0F60001895CC84080BD0000E0
:101B700086B000200590049003900290019041F2FD
:101B80000400C4F2020000680590059800F00C0003
:101B90000146009100283FD0FFE70098042804D0B8
:101BA000FFE70098082806D037E041F20020C0F295
:101BB0007A00019037E00598C0F3834145F2465022
:101BC000C0F60000405C02909DF81600C007C0B14E
:101BD000FFE741F20400C4F202000068C0F3404194
:101BE00045F25650C0F60000405C0490029841F265
:101BF0000021C0F27A0148430499B0FBF1F0039050
:101C000007E0029840F60011C0F23D0148430390FE
:101C1000FFE70398019006E0FFE741F20020C0F2E1
:101C20007A000190FFE7019806B0704780B586B052
:101C30000490049820B9FFE701208DF817002EE3E7
:101C400004980078C007002800F0AE80FFE741F25A
:101C50000400C4F20200006800F00C00042813D055
:101C6000FFE741F20400C4F20200006800F00C003B
:101C700008281BD1FFE741F20400C4F2020000680B
:101C8000C003002812D5FFE741F20000C4F20200B1
:101C900000688003002808D5FFE70498406820B951
:101CA000FFE701208DF81700F9E27CE0FFE70498D8
:101CB0004068B0F5803F09D1FFE741F20001C4F26E
:101CC0000201086840F48030086032E004984068FF
:101CD00068B9FFE741F20001C4F20201086820F48C
:101CE00080300860086820F48020086020E00498B4
:101CF0004068B0F5A02F0DD1FFE741F20001C4F21A
:101D00000201086840F480200860086840F48030D0
:101D100008600CE041F20001C4F20201086820F4FE
:101D200080300860086820F480200860FFE7FFE743
:101D3000FFE7FFE704984068D0B1FFE7FFF770FBCB
:101D40000390FFE741F20000C4F202000068800344
:101D500000280CD4FFE7FFF763FB0399401A6528BE
:101D600004D3FFE703208DF8170098E2EAE719E0B3
:101D7000FFF756FB0390FFE741F20000C4F20200B8
:101D80000068800300280CD5FFE7FFF749FB0399A3
:101D9000401A652804D3FFE703208DF817007EE280
:101DA000EAE7FFE7FFE7FFE70498007880070028ED
:101DB00040F18D80FFE741F20400C4F202000068A8
:101DC00010F00C0F13D0FFE741F20400C4F2020040
:101DD000006800F00C00082829D1FFE741F2040058
:101DE000C4F202000068C003002820D4FFE741F2DB
:101DF0000000C4F2020000688007002809D5FFE750
:101E000004980069012804D0FFE701208DF817002D
:101E100045E241F20001C4F20201086820F0F80036
:101E2000049A526940EAC2000860FFE74EE0049855
:101E3000006958B3FFE70021C4F242210120086085
:101E4000FFF7EEFA0390FFE741F20000C4F2020050
:101E50000068800700280CD4FFE7FFF7E1FA039938
:101E6000401A032804D3FFE703208DF8170016E279
:101E7000EAE741F20001C4F20201086820F0F8002C
:101E8000049A526940EAC20008601EE00021C4F2D0
:101E9000422100200860FFF7C3FA0390FFE741F2F8
:101EA0000000C4F202000068800700280CD5FFE79C
:101EB000FFF7B6FA0399401A032804D3FFE703207B
:101EC0008DF81700EBE1EAE7FFE7FFE7FFE704988B
:101ED00000780007002848D5FFE70498806918B308
:101EE000FFE740F28041C4F2422101200860FFF781
:101EF00097FA0390FFE741F22400C4F20200006861
:101F0000800700280CD4FFE7FFF78AFA0399401AEC
:101F1000032804D3FFE703208DF81700BFE1EAE7A9
:101F2000012002F053F81FE040F28041C4F2422148
:101F300000200860FFF774FA0390FFE741F22400E5
:101F4000C4F202000068800700280CD5FFE7FFF705
:101F500067FA0399401A032804D3FFE703208DF89A
:101F600017009CE1EAE7FFE7FFE7049800784007E5
:101F7000002840F1D880FFE700208DF8070041F2EB
:101F80001C00C4F202000068C000002813D4FFE760
:101F9000FFE741F21C00C4F20200016841F08051E9
:101FA0000160006800F0805000900098FFE7012079
:101FB0008DF80700FFE747F20000C4F20000006858
:101FC000C005002822D4FFE747F20001C4F2000157
:101FD000086840F480700860FFF722FA0390FFE77A
:101FE00047F20000C4F200000068C00500280CD4CD
:101FF000FFE7FFF715FA0399401A652804D3FFE7B6
:1020000003208DF817004AE1EAE7FFE7FFE70498AD
:10201000C068012809D1FFE741F22001C4F20201A2
:10202000086840F00100086031E00498C06868B9B1
:10203000FFE741F22001C4F20201086820F001002C
:102040000860086820F0040008601FE00498C06879
:1020500005280DD1FFE741F22001C4F20201086812
:1020600040F004000860086840F0010008600CE0DF
:1020700041F22001C4F20201086820F0010008606A
:10208000086820F004000860FFE7FFE7FFE7FFE7CC
:102090000498C068E0B1FFE7FFF7C2F90390FFE7DB
:1020A00041F22000C4F202000068800700280ED42C
:1020B000FFE7FFF7B5F90399401A41F289318842E9
:1020C00004D3FFE703208DF81700E8E0E8E71BE002
:1020D000FFF7A6F90390FFE741F22000C4F20200E7
:1020E0000068800700280ED5FFE7FFF799F90399EC
:1020F000401A41F28931884204D3FFE703208DF86A
:102100001700CCE0E8E7FFE79DF80700012809D1B8
:10211000FFE741F21C01C4F20201086820F0805080
:102120000860FFE7FFE70498C069002800F0B3806B
:10213000FFE741F20400C4F20200006800F00C0066
:10214000082800F08280FFE70498C06902285CD16B
:10215000FFE76021C4F2422100200860FFF760F928
:102160000390FFE741F20000C4F202000068800122
:1021700000280CD5FFE7FFF753F90399401A03280D
:1021800004D3FFE703208DF8170088E0EAE70498FE
:10219000006AB0F5803F0CD1FFE741F20401C4F2C0
:1021A0000201086820F40030049A92681043086025
:1021B000FFE741F20401C4F20201086820F4741040
:1021C000049B1A6A5B6A1A43104308606021C4F2D8
:1021D000422101200860FFF723F90390FFE741F255
:1021E0000000C4F202000068800100280CD4FFE760
:1021F000FFF716F90399401A032804D3FFE70320D9
:102200008DF817004BE0EAE71EE06021C4F242219E
:1022100000200860FFF704F90390FFE741F2000097
:10222000C4F202000068800100280CD5FFE7FFF728
:10223000F7F80399401A032804D3FFE703208DF829
:1022400017002CE0EAE7FFE724E00498C0690128C2
:1022500004D1FFE701208DF8170020E041F20400CF
:10226000C4F2020000680290029800F480300499E1
:10227000096A884208D1FFE7029800F470100499B7
:10228000496A884204D0FFE701208DF8170006E074
:10229000FFE7FFE7FFE700208DF81700FFE79DF855
:1022A000170006B080BD000081B00090009890F843
:1022B000510001B07047000080B584B002900298D0
:1022C00020B9FFE701208DF80F006EE00298406A08
:1022D00060B9FFE702984068B0F5827F01D1FFE75F
:1022E00003E002990020C861FFE705E002990020A1
:1022F000086102994861FFE702990020886202980C
:1023000090F8510040B9FFE70299002081F8500091
:10231000029800F04FF8FFE70299022081F851007F
:1023200002980168086820F040000860029A019253
:1023300011685068D2F808C0D36800F482700CF4B9
:10234000044C604403F400631844136903F002036F
:102350001844536903F001031844936903F40073AC
:102360001844D36903F038031844136A03F0800358
:102370001843926A02F40052104308600298016800
:102380008269042000EA1240486002980168C86926
:1023900020F40060C861029900204865029A01217A
:1023A00082F851108DF80F00FFE79DF80F0004B080
:1023B00080BD000080B58EB00D9000200C900B9079
:1023C0000A9009900D98006843F20001C4F20101DF
:1023D000884237D1FFE7FFE741F21800C4F202005C
:1023E000016841F480510160006800F48050089059
:1023F0000898FFE7FFE741F21800C4F20200016805
:1024000041F004010160006800F0040007900798A3
:10241000FFE7A020099002200A9003200C9040F6CC
:102420000000C4F20100039009A90491FEF724FE04
:10243000039804994022099200220A920B92FEF717
:102440001BFE42E00D98006843F60001C4F2000153
:10245000884239D1FFE7FFE741F21C00C4F20200D5
:10246000016841F480410160006800F480400690FA
:102470000698FFE7FFE741F21800C4F20200016886
:1024800041F008010160006800F00800059005981F
:10249000FFE74FF42040099002200A9003200C909F
:1024A00040F60040C4F20100019009A90291FEF734
:1024B000E3FD019802994FF48042099200220A92AA
:1024C0000B92FEF7D9FDFFE7FFE70EB080BD0000DD
:1024D00080B588B006900591ADF812200393069858
:1024E00090F85100012804D0FFE702208DF81F006A
:1024F00011E106984068B0F5827F16D1FFE7069893
:10250000806890B9FFE70699042081F85100069889
:10251000059ABDF812300399EC46CCF8001011462C
:1025200000F050FA8DF81F00F5E0FEF779FF0290F9
:10253000059820B1FFE7BDF8120020B9FFE70120A0
:102540008DF81F00E7E0FFE7069890F8500001289B
:1025500004D1FFE702208DF81F00DCE0069901207E
:1025600081F85000FFE7FFE70699042081F8510049
:102570000699002048650599069A9163BDF81210E6
:10258000069A9187BDF81210069AD18706990863BA
:10259000069988860699C88606990864069948644B
:1025A00006988068B0F5004F0DD1FFE706980168E6
:1025B000086820F04000086006980168086820F468
:1025C00080400860FFE706980068006800F040005F
:1025D000402807D0FFE706980168086840F04000EF
:1025E0000860FFE70698C068D0BBFFE7FFE70698E2
:1025F000C08FA0B3FFE7069800688068C00778B175
:10260000FFE706980068007B0699896B08700699B9
:10261000886B013088630699C88F0138C8871DE030
:10262000FEF7FEFE0299401A0399884204D3FFE7A1
:102630000398013018B9FFE7039870B9FFE70699CE
:10264000012081F85100FFE70699002081F8500031
:10265000FFE703208DF81F005DE0FFE7C7E739E0E3
:10266000FFE70698C08FA0B3FFE706980068806870
:10267000C00778B1FFE706980068C0680699896BC3
:1026800008800699886B023088630699C88F0138E4
:10269000C8871DE0FEF7C4FE0299401A03998842DC
:1026A00004D3FFE70398013018B9FFE7039870B926
:1026B000FFE70699012081F85100FFE70699002005
:1026C00081F85000FFE703208DF81F0023E0FFE7AB
:1026D000C7E7FFE706980399029A01F0BBFC20B117
:1026E000FFE7069920204865FFE70699012081F859
:1026F0005100FFE70699002081F85000FFE7069897
:10270000406D20B1FFE701208DF81F0003E000209D
:102710008DF81F00FFE79DF81F0008B080BD000086
:1027200080B588B006900591ADF812200393FEF7AE
:1027300077FE0290BDF81200ADF80600069890F8FA
:102740005100012804D0FFE702208DF81F0034E17A
:10275000059820B1FFE7BDF8120020B9FFE701207E
:102760008DF81F0029E1FFE7069890F85000012836
:1027700004D1FFE702208DF81F001EE10699012019
:1027800081F85000FFE7FFE70699032081F8510028
:102790000699002048650599069A1163BDF8121044
:1027A000069A9186BDF81210069AD186069988631A
:1027B000069988870699C887069948640699086427
:1027C00006988068B0F5004F0DD1FFE706980168C4
:1027D000086820F04000086006980168086840F426
:1027E00080400860FFE706980068006800F040003D
:1027F000402807D0FFE706980168086840F04000CD
:102800000860FFE70698C068B0F5006F51D1FFE798
:102810000698406828B1FFE7BDF8060001280ED1F0
:10282000FFE706980168006B0088C8600699086B8E
:10283000023008630699C88E0138C886FFE7FFE7B3
:102840000698C08EA0B3FFE70698006880688007EE
:1028500000280ED5FFE706980168006B0088C86065
:102860000699086B023008630699C88E0138C8863D
:102870001DE0FEF7D5FD0299401A0399884204D362
:10288000FFE70398013018B9FFE7039870B9FFE735
:102890000699012081F85100FFE70699002081F890
:1028A0005000FFE703208DF81F0086E0FFE7C7E731
:1028B00050E00698406828B1FFE7BDF806000128FF
:1028C0000ED1FFE706980168006B0078087306993F
:1028D000086B013008630699C88E0138C886FFE787
:1028E000FFE70698C08EA0B3FFE7069800688068EF
:1028F000800700280ED5FFE706980168006B007876
:1029000008730699086B013008630699C88E013870
:10291000C8861DE0FEF784FD0299401A039988429B
:1029200004D3FFE70398013018B9FFE7039870B9A3
:10293000FFE70699012081F85100FFE70699002082
:1029400081F85000FFE703208DF81F0035E0FFE716
:10295000C7E7FFE706980399029A01F0D7FB20B179
:10296000FFE7069920204865FFE70698806870B960
:10297000FFE7FFE70020009006980068C06800901D
:1029800006980068806800900098FFE7FFE70699C6
:10299000012081F85100FFE70699002081F85000DE
:1029A000FFE70698406D20B1FFE701208DF81F007A
:1029B00003E000208DF81F00FFE79DF81F0008B01E
:1029C00080BD000080B58CB0DDF838C00A90099158
:1029D0000892ADF81E3001200390FEF721FD04900F
:1029E0000A9890F851008DF817000A9840680690F0
:1029F000BDF81E00ADF81C009DF81700012812D08C
:102A0000FFE70698B0F5827F09D1FFE70A98806852
:102A100028B9FFE79DF81700042804D0FFE702203B
:102A20008DF82F009BE1099838B1FFE7089820B195
:102A3000FFE7BDF81E0020B9FFE701208DF82F0049
:102A40008DE1FFE70A9890F85000012804D1FFE7D4
:102A500002208DF82F0082E10A99012081F85000B0
:102A6000FFE7FFE70A9890F85100042805D0FFE738
:102A70000A99052081F85100FFE70A99002048656E
:102A800008990A9A9163BDF81E100A9AD187BDF879
:102A90001E100A9A918709990A9A1163BDF81E10AF
:102AA0000A9AD186BDF81E100A9A91860A9908647E
:102AB0000A9948640A980068006800F040004028BD
:102AC00007D0FFE70A980168086840F040000860F6
:102AD000FFE70A98C068B0F5006F40F08180FFE71B
:102AE0000A98406828B1FFE7BDF81C0001280ED104
:102AF000FFE70A980168006B0088C8600A99086BB4
:102B0000023008630A99C88E0138C886FFE7FFE7DC
:102B10000A98C18E0120019039B9FFE70A98C08F49
:102B2000002818BF01200190FFE70198C007002886
:102B300055D0FFE70A98006880688007002818D5FC
:102B4000FFE70A98C08EA0B1FFE70398012810D1D3
:102B5000FFE70A980168006B0088C8600A99086B53
:102B6000023008630A99C88E0138C8860020039095
:102B7000FFE70A9800688068C007A8B1FFE70A98D5
:102B8000C08F88B1FFE70A980068C0680A99896B0E
:102B900008800A99886B023088630A99C88F0138C7
:102BA000C88701200390FFE7FEF73AFC0499401A1A
:102BB0000E99884212D3FFE70E98013070B1FFE7FB
:102BC0000A99012081F85100FFE70A99002081F855
:102BD0005000FFE703208DF82F00C0E098E782E067
:102BE0000A98406828B1FFE7BDF81C0001280ED103
:102BF000FFE70A980168006B007808730A99086B70
:102C0000013008630A99C88E0138C886FFE7FFE7DC
:102C10000A98C18E0120009039B9FFE70A98C08F49
:102C2000002818BF01200090FFE70098C007002887
:102C300058D0FFE70A98006880688007002818D5F8
:102C4000FFE70A98C08EA0B1FFE70398012810D1D2
:102C5000FFE70A980168006B007808730A99086B0F
:102C6000013008630A99C88E0138C8860020039095
:102C7000FFE70A9800688068C007A8B1FFE70A98D4
:102C8000C08F88B1FFE70A980068C0680A99896B0D
:102C900008700A99886B013088630A99C88F0138D7
:102CA000C88701200390FFE7FEF7BAFB0499401A9A
:102CB0000E99884204D3FFE70E98013018B9FFE758
:102CC0000E9870B9FFE70A99012081F85100FFE7DB
:102CD0000A99002081F85000FFE703208DF82F00AB
:102CE0003DE095E7FFE70A980E99049A01F00EFA85
:102CF00068B1FFE70A9920204865FFE70A9900209C
:102D000081F85000FFE701208DF82F0027E00A9896
:102D1000806870B9FFE7FFE7002002900A9800681A
:102D2000C06802900A980068806802900298FFE7E5
:102D3000FFE70A99012081F85100FFE70A99002076
:102D400081F85000FFE70A98406D20B1FFE70120AD
:102D50008DF82F0003E000208DF82F00FFE79DF88D
:102D60002F000CB080BD000080B582B001900198AA
:102D700001F0F6FA02B080BD85B003900291FFE742
:102D8000039890F83C00012804D1FFE702208DF859
:102D900013005BE00399012081F83C00FFE7FFE7A7
:102DA0000399022081F83D00039800684068019073
:102DB0000398006880680090019820F070000190EE
:102DC00002980168019808430190019803990968E5
:102DD00048600398006842F60041C4F2010188424D
:102DE00018D0FFE703980068B0F1804F12D0FFE7DA
:102DF0000398006840F20041C4F20001884209D003
:102E0000FFE70398006840F60001C4F20001884221
:102E10000ED1FFE7009820F08000009002984168F2
:102E20000098084300900098039909688860FFE7BC
:102E30000399012081F83D00FFE70399002081F804
:102E40003C00FFE700208DF81300FFE79DF813001A
:102E500005B0704780B582B00090009820B9FFE7B8
:102E600001208DF807003FE0009890F83D0040B940
:102E7000FFE70099002081F83C00009800F038F846
:102E8000FFE70099022081F83D00009951F8040BFA
:102E900001F0D8FA0099012081F84600FFE7009977
:102EA000012081F83E00009981F83F00009981F8E7
:102EB0004000009981F84100FFE7FFE700990120F9
:102EC00081F84200009981F84300009981F844009C
:102ED000009981F84500FFE70099012081F83D0045
:102EE00000208DF80700FFE79DF8070002B080BDC5
:102EF00083B002900298006842F60041C4F20101DA
:102F0000884210D1FFE7FFE741F21800C4F2020047
:102F1000016841F400610160006800F40060019004
:102F20000198FFE716E002980068B0F1804F10D1D9
:102F3000FFE7FFE741F21C00C4F20200016841F024
:102F400001010160006800F0010000900098FFE7B7
:102F5000FFE7FFE703B0704783B00190019890F856
:102F60003D00012804D0FFE701208DF80B0041E06F
:102F70000199022081F83D000198006842F6004165
:102F8000C4F20101884218D0FFE701980068B0F14F
:102F9000804F12D0FFE70198006840F20041C4F270
:102FA0000001884209D0FFE70198006840F600015F
:102FB000C4F20001884212D1FFE7019800688068DE
:102FC00000F0070000900098062807D0FFE701985E
:102FD0000168086840F001000860FFE706E001981A
:102FE0000168086840F001000860FFE700208DF8E4
:102FF0000B00FFE79DF80B0003B0704780B586B06B
:103000000490039100208DF80B00FFE7049890F8DE
:103010003C00012804D1FFE702208DF81700ABE047
:103020000499012081F83C00FFE7FFE704990220A2
:1030300081F83D000498006880680190019820F0B4
:1030400077000190019820F47F4001900198049945
:1030500009688860039800680090002872D0FFE734
:10306000009810286ED0FFE7009820286AD0FFE76C
:103070000098302866D0FFE70098402855D0FFE739
:103080000098502837D0FFE70098602840D0FFE72D
:10309000009870280BD0FFE70098B0F5805F05D04E
:1030A000FFE70098B0F5005F16D052E055E00498B5
:1030B0000068039B5A689968DB6801F063FA04981A
:1030C000006880680190019840F0770001900198B5
:1030D00004990968886040E004980068039B5A6876
:1030E0009968DB6801F04EFA04980168886840F43A
:1030F0008040886031E004980068039A5168D26883
:1031000001F0FCFB04980068502101F055FA24E01E
:1031100004980068039A5168D26801F017FC04987B
:103120000068602101F048FA17E004980068039AEB
:103130005168D26801F0E2FB04980068402101F078
:103140003BFA0AE0049800680399096801F034FA30
:1031500003E001208DF80B00FFE70499012081F8BE
:103160003D00FFE70499002081F83C00FFE79DF84F
:103170000B008DF81700FFE79DF8170006B080BD23
:1031800080B588B0079000200690059004900390C9
:1031900007980068B0F1804F31D1FFE7FFE741F2B7
:1031A0001800C4F20200016841F0080101600068E3
:1031B00000F0080002900298FFE708200390022028
:1031C0000490069040F60040C4F2010003A9FDF708
:1031D00053FFFFE70421C4F2010108680190019840
:1031E00020F440700190019840F0E0600190019857
:1031F00040F48070019001980860FFE7FFE708B095
:1032000080BD000080B586B004900391029200203A
:103210008DF80700FFE7049890F83C00012804D1DE
:10322000FFE702208DF8170089E00499012081F85A
:103230003C00FFE7FFE7029800900C2800F2708046
:103240000099DFE801F0076D6D6D206D6D6D3A6DD1
:103250006D6D530004980068039901F0C3F9049858
:103260000168886940F008008861049801688869ED
:1032700020F0040088610398026904980168886955
:103280001043886150E004980068039901F012FA35
:1032900004980168886940F40060886104980168B6
:1032A000886920F480608861039802690498016845
:1032B000886940EA0220886136E004980068039932
:1032C00001F064FA04980168C86940F00800C86118
:1032D00004980168C86920F00400C8610398026975
:1032E00004980168C8691043C8611DE0049800682B
:1032F000039901F0B7FA04980168C86940F40060C6
:10330000C86104980168C86920F48060C8610398A6
:10331000026904980168C86940EA0220C86103E0B4
:1033200001208DF80700FFE7FFE70499002081F8EE
:103330003C00FFE79DF807008DF81700FFE79DF8B8
:10334000170006B080BD000080B582B000900098E4
:1033500020B9FFE701208DF807003FE0009890F8C2
:103360003D0040B9FFE70099002081F83C0000983B
:1033700000F038F8FFE70099022081F83D0000993D
:1033800051F8040B01F05EF80099012081F8460025
:10339000FFE70099012081F83E00009981F83F0085
:1033A000009981F84000009981F84100FFE7FFE7AC
:1033B0000099012081F84200009981F843000099AA
:1033C00081F84400009981F84500FFE70099012049
:1033D00081F83D0000208DF80700FFE79DF8070009
:1033E00002B080BD81B0009001B0704780B58AB056
:1033F00008900791079828B9FFE7089890F83E00D1
:1034000005901CE00798042805D1FFE7089890F87C
:103410003F00049010E00798082805D1FFE70898BE
:1034200090F84000039004E0089890F84100039061
:10343000FFE703980490FFE704980590FFE70598DD
:10344000012804D0FFE701208DF827007AE00798D3
:1034500028B9FFE70899022081F83E001EE007988E
:10346000042806D1FFE70899022081F83F00029066
:1034700012E00798082806D1FFE70899022081F892
:103480004000019005E00899022081F84100019078
:10349000FFE701980290FFE70298FFE708980068AD
:1034A0000799012201F052F80898006842F600419D
:1034B000C4F20101884207D1FFE708980168486C0F
:1034C00040F400404864FFE70898006842F6004175
:1034D000C4F20101884218D0FFE708980068B0F1F3
:1034E000804F12D0FFE70898006840F20041C4F214
:1034F0000001884209D0FFE70898006840F6000103
:10350000C4F20001884212D1FFE708980068806881
:1035100000F0070006900698062807D0FFE70898F5
:103520000168086840F001000860FFE706E00898BD
:103530000168086840F001000860FFE700208DF88E
:103540002700FFE79DF827000AB080BDFFE7FEE7F0
:1035500080B584B040F60000C4F201000290102152
:1035600001910022FDF744FFB02000F027FE00F09B
:1035700003FE0199024602988DF80F200122FDF703
:1035800037FF9DF80F0004B080BD000080B582B009
:1035900040F60000C4F2010010210122FDF728FFCF
:1035A0000A208DF80600FFE740F2B000C2F20000EA
:1035B000FEF77AFE012804D1FFE701208DF807000D
:1035C0000EE09DF8060001388DF80600FFE79DF833
:1035D00006000028E8DCFFE700208DF80700FFE781
:1035E0009DF8070002B080BD80B586B08DF8170049
:1035F00004918DF80F20029340F60000C4F2010000
:103600000090102101910022FDF7F2FE9DF81700B5
:1036100000F0D4FD0498042100F0E0FD9DF80F00B7
:1036200000F0CCFD02989DF80F1000F0D7FD009837
:1036300001990122FDF7DCFE06B080BD80B584B0A3
:103640008DF80F0040F60000C4F201000290102136
:1036500001910022FDF7CCFE032000F0AFFD9DF8A4
:103660000F0000F0ABFD00F087FD019902460298C3
:103670008DF80E200122FDF7BBFE9DF80E0004B070
:1036800080BD000080B586B08DF8170004918DF8DC
:103690000F2040F60000C4F20100019010210291B9
:1036A0000022FDF7A5FE9DF8170000F087FD0498A5
:1036B0009DF80F1000F070FD019802990122FDF7AE
:1036C00097FE06B080BD000080B584B040F60000D3
:1036D000C4F201000290102101910022FDF788FE42
:1036E000A02000F06BFD00F047FD01990246029812
:1036F0008DF80F200122FDF77BFE9DF80F0004B02E
:1037000080BD000080B584B08DF80F0040F6000049
:10371000C4F201000190102102910022FDF768FE21
:103720009DF80F0000F04AFD019802990122FDF773
:103730005FFE04B080BD000080B582B00F20802104
:1037400000F04CF80A208DF80600FFE70E20FFF786
:1037500075FF00F0E000802804D1FFE701208DF81C
:1037600007000EE09DF8060001388DF80600FFE71F
:103770009DF806000028E9DCFFE700208DF807002F
:10378000FFE79DF8070002B080BD000080B582B061
:103790000F20002100F022F80A208DF80600FFE734
:1037A0000E20FFF74BFF10F0E00F04D1FFE70120E0
:1037B0008DF807000EE09DF8060001388DF8060030
:1037C000FFE79DF806000028EADCFFE700208DF8FF
:1037D0000700FFE79DF8070002B080BD80B584B008
:1037E0008DF80F008DF80E1040F60000C4F20100B5
:1037F0000190102102910022FDF7FAFD022000F055
:10380000DDFC9DF80F0000F0D9FC9DF80E0000F0E3
:10381000D5FC019802990122FDF7EAFD04B080BDB4
:1038200080B584B08DF80F008DF80E10029240F62E
:103830000000C4F201000090102101910022FDF768
:10384000D7FD022000F0BAFC9DF80F0000F0B6FC96
:1038500002989DF80E109DF80F20891A0131C9B207
:1038600000F0BCFC009801990122FDF7C1FD04B0F5
:1038700080BD000080B584B0039000218DF8091050
:103880000D2001F08FF803999320087003992020F0
:103890004870039B694601A808600C200222194663
:1038A00000F092F88DF80B009DF80B0038BBFFE795
:1038B00000208DF80A00FFE79DF80A00032810DCBD
:1038C000FFE703989DF80A10415C9DF80900484005
:1038D0008DF80900FFE79DF80A0001308DF80A0015
:1038E000EAE79DF8090003999DF80A20895C88425F
:1038F00004D0FFE702208DF80B00FFE7FFE79DF8FB
:103900000B0004B080BD000080B582B040F60040DE
:10391000C4F2010000904FF4805101220192FDF7A2
:1039200067FD0098019A4FF40061FDF761FD00F01A
:1039300045F82A208D2101F035F82B203E2101F099
:1039400031F82D201E2101F02DF82C20002101F04E
:1039500029F81520402101F025F811203D2101F022
:1039600021F8FCF74BFD02B080BD000080B586B0A9
:103970008DF8170004910D20072101F013F89DF830
:10398000170004990870049B694602A808600C207F
:103990000122194600F018F88DF80F009DF80F006D
:1039A00020B9FFE70298102804D0FFE702208DF825
:1039B0000F00FFE79DF80F0006B080BD80B5012025
:1039C0000F2100F0EFFF80BD80B58CB0DDF838C06E
:1039D0008DF82F000A918DF82720089302208DF88A
:1039E0001F0000208DF81E008DF81D009DF82F008F
:1039F000014604910C280BD0FFE704980E280ED145
:103A0000FFE712208DF81E0010208DF81D0007E042
:103A100077208DF81E0030208DF81D0000E0FFE7B4
:103A20009DF81E0040F08001022000F0BBFF042042
:103A300080210291FCF794FE02990A2000F078FCA4
:103A400001200021039100F0ADFF03980590FFE7EE
:103A500005989DF8271088420BD2FFE70A98059930
:103A6000415C092000F09EFFFFE7059801300590BA
:103A7000EEE79DF82F10012000F094FF9DF82F0035
:103A80000C2805D1FFE70D20802100F051FCFFE755
:103A90004FF4FA600590FFE7042000F0B5FA8DF8C6
:103AA0001B00059801380590FFE70599002001905B
:103AB00089B1FFE79DF81B100020C907019051B99B
:103AC000FFE79DF81B009DF81D100840B0FA80F03C
:103AD00040090190FFE70198C0070028DCD1FFE70B
:103AE0000D208021FCF73CFE0598002867D0FFE7F9
:103AF000062000F089FA10F01B0F5BD1FFE70020D1
:103B00008DF81F009DF81B009DF81E100840C0078F
:103B100020B1FFE701208DF81F00FFE79DF82F007F
:103B20000C2846D1FFE70A2000F06EFA8DF81B0042
:103B30000C2000F069FA00F007008DF81C009DF8D9
:103B40001C0050B1FFE79DF81B109DF81C0000EB16
:103B5000C10008380E99086005E09DF81B00C00000
:103B60000E990860FFE79DF81B0020B9FFE70120D0
:103B70008DF81B00FFE79DF81B00112804DBFFE711
:103B800010208DF81B00FFE700200590FFE7059847
:103B90009DF81B1088420BD2FFE7092000F034FA91
:103BA0000899059A8854FFE7059801300590EEE7DB
:103BB000FFE703E002208DF81F00FFE7FFE79DF815
:103BC0001F000CB080BD000080B584B000220392BD
:103BD0000292019240F28000C2F20000009042F294
:103BE0000041C4F20101016082600121017302758C
:103BF0004FF46023C36142600161FCF7B5FE18B168
:103C0000FFE7FCF7C7FDFFE70920019001200290C4
:103C10000020039040F28000C2F2000001A9FCF7EE
:103C2000C1FD18B1FFE7FCF7B5FDFFE704B080BDAB
:103C300080B58EB000200D900C900B900A90FFE79D
:103C400041F21800C4F20200016841F02001016055
:103C5000006800F0200009900998FFE7FFE741F2B3
:103C60001800C4F20200016841F00401016000681C
:103C700000F0040008900898FFE7FFE741F2180001
:103C8000C4F20200016841F008010160006800F020
:103C9000080007900798FFE740F60000C4F2010013
:103CA000059040F2062100220492FDF7A1FB059841
:103CB000102101220092FDF79BFB049A40F6004080
:103CC000C4F2010002904FF4C0510391FDF790FB44
:103CD000009A0499059840F216230A930B920C91CE
:103CE000022101910D910AA90691FDF7C5F9DDF8B0
:103CF00000C0019A0298049B0699DDF80CE0CDF80B
:103D000028E0CDF82CC00C930D92FDF7B5F9049A7C
:103D1000059806994FF480730A930B920C92FDF765
:103D2000ABF90EB080BD000080B582B040F2B000AB
:103D3000C2F20000019043F20001C4F201010160EF
:103D40004FF48271416000218160C1600161416175
:103D50004FF4007282612022C2610162416281627D
:103D60000A21C162FEF7A8FA18B1FFE7FCF712FDBD
:103D7000FFE702B080BD000080B582B040F20810BD
:103D8000C2F20000019043F60001C4F2000101609C
:103D90004FF48271416000218160C1600161416125
:103DA0004FF4007282611022C2610162416281623D
:103DB0000A21C162FEF780FA18B1FFE7FCF7EAFCBE
:103DC000FFE702B080BD000080B588B000210091FF
:103DD00007910691059104910391029140F26010C0
:103DE000C2F20000019042F60042C4F201020260F9
:103DF0000722426081604FF6FF72C260016141613B
:103E00008161FFF727F818B1FFE7FCF7C3FCFFE774
:103E10004FF48050049040F26010C2F2000004A9F8
:103E2000FFF7ECF818B1FFE7FCF7B4FCFFE7002060
:103E30000290039040F26010C2F2000002A9FEF767
:103E40009BFF18B1FFE7FCF7A5FCFFE708B080BDBA
:103E500080B58EB0002100910D910C910B910A91CB
:103E6000099108910791069105910491039102919E
:103E7000019140F2A810C2F200004FF080420260AF
:103E80000F224260816042F20F72C2600161816163
:103E9000FEF7E0FF18B1FFE7FCF77CFCFFE74FF40B
:103EA00080500A9040F2A810C2F200000AA9FFF761
:103EB000A5F818B1FFE7FCF76DFCFFE740F2A8108A
:103EC000C2F20000FFF740FA18B1FFE7FCF762FC0E
:103ED000FFE700200890099040F2A810C2F200000D
:103EE00008A9FEF749FF18B1FFE7FCF753FCFFE70D
:103EF00060200190002002900390059040F2A810ED
:103F0000C2F2000001A90422FFF77CF918B1FFE713
:103F1000FCF740FCFFE740F2A810C2F20000FFF7F8
:103F20002FF90EB080BD0000FFE7FEE7FFE7FEE7D8
:103F300088B0079006910592079800F0070004905A
:103F40000498C0F10700052803D3FFE7042001907F
:103F500004E00498C0F107000190FFE70198039086
:103F600004980430062803D8FFE70020009003E0FF
:103F7000049803380090FFE7009802900698039990
:103F8000012202FA01F101390840029B984005998B
:103F90009A40013A1140084308B07047704700004A
:103FA00080B582B08DF8070069466420086040F251
:103FB0000810C2F200000DF107010DF10602012305
:103FC000FEF700FD9DF8060002B080BD82B00190B2
:103FD000019840F20001C2F200010968C90844F6E4
:103FE000D352C1F26202A1FB022189094843009029
:103FF000FFE700BFFFE70098411E00910028F8D1BD
:10400000FFE702B07047000080B584B08DF80F0064
:1040100040F60040C4F2010002904FF4805101913B
:1040200000220092FDF7E4F99DF80F10802061F363
:104030004600FFF7B5FF0098FFF7B2FF019902466F
:1040400002988DF80E200122FDF7D2F99DF80E009E
:1040500004B080BD80B586B00490039102920498AC
:104060004068B0F5827F13D1FFE704988068B0F50F
:10407000004F06D0FFE704988068B0F5806F07D145
:10408000FFE704980168086820F040000860FFE737
:1040900004984068B0F5827F1BD1FFE704988068E0
:1040A000B0F5806F15D1FFE70498039B02996A462B
:1040B00011600121002200F0A3F848B1FFE7049944
:1040C000486D40F02000486503208DF8170019E086
:1040D00014E00498039B02996A4611608021002233
:1040E00000F08EF848B1FFE70499486D40F02000D9
:1040F000486503208DF8170004E0FFE700208DF8E5
:104100001700FFE79DF8170006B080BD80B586B0A8
:104110000490039102920498039B02996A461160ED
:104120000221012200F06CF848B1FFE70499486DC4
:1041300040F02000486503208DF8170017E0049830
:10414000039B02996A4611608021002200F058F812
:1041500048B1FFE70499486D40F02000486503200E
:104160008DF8170003E000208DF81700FFE79DF899
:10417000170006B080BD000080B582B040F2B000EC
:10418000C2F200000DF1070101220A23FEF7A0F997
:104190009DF8070002B080BD80B582B001908DF817
:1041A000031001999DF8032040F2B000C2F2000014
:1041B0000A23FEF78DF902B080BD000080B582B001
:1041C0008DF8070040F2B000C2F200000DF10701C7
:1041D00001220A23FEF7A4FA02B080BD80B582B0A6
:1041E00001908DF8031001999DF8032040F2B00072
:1041F000C2F200000A23FEF793FA02B080BD00006D
:1042000080B58AB0DDF830C0089007918DF81B208A
:10421000059305980190FDF703F9024601980C9962
:10422000891A08440390FDF7FBF80290039840F2C6
:104230000001C2F200010968C1F3CB314843049088
:10424000FFE708980068806807990840401AB0FAAC
:1042500080F040099DF81B1088425ED0FFE705986A
:104260000130002858D0FFE7FDF7DAF80299401A2C
:104270000399884204D2FFE70398002842D1FFE760
:1042800008980168486820F0E00048600898406895
:10429000B0F5827F13D1FFE708988068B0F5004F32
:1042A00006D0FFE708988068B0F5806F07D1FFE778
:1042B00008980168086820F040000860FFE7089847
:1042C000806AB0F5005F0FD1FFE7FFE7089801684B
:1042D000086820F40050086008980168086840F4F5
:1042E00000500860FFE7FFE70899012081F85100BE
:1042F000FFE70899002081F85000FFE703208DF8C0
:1043000027000EE0049818B9FFE700200390FFE7AC
:10431000049801380490FFE793E700208DF8270008
:10432000FFE79DF827000AB080BD0000704700003D
:1043300080B582B08DF807008DF806109DF8070053
:10434000FFF762FE8DF805009DF807009DF8051047
:104350009DF80620114300F025FB02B080BD00004F
:1043600080B582B0009000980138B0F1807F03D30F
:10437000FFE70120019019E0009801384EF2140186
:10438000CEF2000108604FF0FF300F2100F036FB45
:104390004EF21801CEF20001002008604EF2100229
:1043A000CEF20002072111600190FFE7019802B0F0
:1043B00080BD000080B5FDF739F880BD80B596B0AE
:1043C0000CA801902821FBF715FF0198002102910C
:1043D0000B910A9109910891079106910591049119
:1043E000039101220C924FF480320D921391FDF74C
:1043F0001DFC18B1FFE7FCF7CDF9FFE70F20079090
:1044000001200890002109914FF480600A900B91DF
:1044100007A8FDF769FA18B1FFE7FCF7BBF9FFE75A
:10442000022003904FF40040059003A8FDF778F9AF
:1044300018B1FFE7FCF7AEF9FFE716B080BD00004A
:104440007047000083B002900191029800680090CC
:10445000029842F60041C4F20101884215D0FFE7FC
:104460000298B0F1804F10D0FFE7029840F200416F
:10447000C4F20001884208D0FFE7029840F600012C
:10448000C4F2000188420AD1FFE7009820F07000D2
:10449000009001984168009808430090FFE7029857
:1044A00042F60041C4F20101884215D0FFE70298AC
:1044B000B0F1804F10D0FFE7029840F20041C4F203
:1044C0000001884208D0FFE7029840F60001C4F2DC
:1044D000000188420AD1FFE7009820F44070009064
:1044E0000198C168009808430090FFE7009820F009
:1044F000800001994969084300900098029908607A
:10450000019880680299C8620198006802998862DF
:10451000029842F60041C4F20101884205D1FFE74A
:104520000198006902990863FFE702990120486138
:1045300002980069C00730B1FFE70299086920F0CE
:1045400001000861FFE703B07047000084B00390EA
:1045500002910192029800F01F0101208840009012
:10456000009A0399086A904308620198029901F041
:104570001F0100FA01F20399086A1043086204B0AF
:104580007047000085B00490039102920193049853
:1045900080680090009820F47F4000900398029972
:1045A000019A41EA022101430098084300900098D3
:1045B0000499886005B0704783B002900191029819
:1045C00080680090009820F0700000900198009999
:1045D000084340F00700009000980299886003B0FB
:1045E0007047000085B0049003910498006A019020
:1045F0000499086A20F0010008620498406800905D
:10460000049880690290029820F07000029002984D
:1046100020F003000290039801680298084302907A
:10462000019820F0020001900398816801980843E6
:104630000190049842F60041C4F2010188420ED173
:10464000FFE7019820F0080001900398C1680198E5
:1046500008430190019820F004000190FFE70498BE
:1046600042F60041C4F20101884213D1FFE70098ED
:1046700020F480700090009820F40070009003985F
:1046800041690098084300900398816900980843A5
:104690000090FFE7009804994860029804998861A7
:1046A000039840680499486301980499086205B02A
:1046B0007047000085B0049003910498006A01904F
:1046C0000499086A20F0100008620498406800907D
:1046D000049880690290029820F4E04002900298C9
:1046E00020F44070029003980168029840EA01208B
:1046F0000290019820F020000190039881680198B1
:1047000040EA01100190049842F60041C4F2010110
:1047100088420FD1FFE7019820F0800001900398B4
:10472000C168019840EA01100190019820F0400012
:104730000190FFE7049842F60041C4F2010188426B
:1047400015D1FFE7009820F480600090009820F4D5
:104750000060009003984169009840EA8100009051
:1047600003988169009840EA81000090FFE7009873
:1047700004994860029804998861039840680499F4
:10478000886301980499086205B0704785B0049069
:1047900003910498006A01900499086A20F48070DB
:1047A00008620498406800900498C06902900298DA
:1047B00020F070000290029820F00300029003980D
:1047C0000168029808430290019820F4007001905B
:1047D00003988168019840EA01200190049842F60C
:1047E0000041C4F2010188420FD1FFE7019820F493
:1047F000006001900398C168019840EA012001908F
:10480000019820F480600190FFE7049842F600418F
:10481000C4F20101884215D1FFE7009820F48050CE
:104820000090009820F4005000900398416900988F
:1048300040EA0110009003988169009840EA011055
:104840000090FFE700980499486002980499C861B5
:10485000039840680499C86301980499086205B0F8
:104860007047000085B0049003910498006A01909D
:104870000499086A20F48050086204984068009007
:104880000498C0690290029820F4E04002900298D7
:1048900020F44070029003980168029840EA0120D9
:1048A0000290019820F400500190039881680198CB
:1048B00040EA01300190049842F60041C4F201013F
:1048C00088420BD1FFE7009820F4804000900398C5
:1048D0004169009840EA81100090FFE70098049930
:1048E000486002980499C861039840680499086474
:1048F00001980499086205B07047000085B00490E3
:10490000039102920498006A00900499086A20F0CA
:1049100001000862049880690190019820F0F0007D
:1049200001900299019840EA01100190009820F04E
:104930000A00009003990098084300900198049998
:10494000886100980499086205B0704785B00490AA
:10495000039102920498006A00900499086A20F07A
:1049600010000862049880690190019820F470405A
:1049700001900299019840EA01300190009820F0DE
:10498000A00000900399009840EA0110009001985F
:104990000499886100980499086205B07047000086
:1049A000FFE7FEE780B584B08DF80F008DF80E109C
:1049B00040F60040C4F2010002904FF48051019192
:1049C0000022FCF715FD9DF80F107E2000EA410043
:1049D000FFF7E6FA9DF80E00FFF7E2FA0199029858
:1049E0000122FCF705FD04B080BD00004EF60C501E
:1049F000CEF200000068C0F30220704782B08DF84C
:104A0000070000919DF9070000280AD4FFE70098ED
:104A100000019DF907104EF20042CEF200028854C8
:104A20000BE0009800019DF8071001F00F014EF611
:104A30001452CEF200028854FFE702B07047000023
:104A400083B00290029800F0070000904EF60C51DF
:104A5000CEF200010868019001984FF6FF02104065
:104A600001900198009A40EA02200022C0F2FA5216
:104A7000104301900198086003B0704784B0039020
:104A80008DF80B10019200208DF803009DF80B00AB
:104A900002282ED1FFE703980199C8700398000AF5
:104AA00003900398019988700398000A0390039873
:104AB00000F003008DF803000398C00003900398F2
:104AC00000F0E0009DF8031008448DF803009DF805
:104AD000030008308DF803009DF8030000F0EB00A0
:104AE000019948700398000A03900398019908708F
:104AF00011E00199002088700199C8700398400165
:104B000003900398019948700398000A0390039852
:104B100001990870FFE704B07047000084B08DF879
:104B20000F008DF80E108DF80D208DF80C30002040
:104B3000029001909DF80C0000F003008DF8030036
:104B40009DF80C0040098DF802009DF80D00C00092
:104B5000019001989DF8021008440190019880008E
:104B6000019001989DF803100844019001980002FB
:104B7000019001989DF80F100844019001980002DF
:104B8000019001989DF80E10084401900198029040
:104B9000029804B07047000083B08DF80B008DF8C8
:104BA0000A10002001909DF80B00C00000900098B2
:104BB0009DF80A1000EB51100090009801900198A8
:104BC00003B0704780B584B0002002900390FCF7DA
:104BD0003BFCFFF7F3FBFFF72BF8FFF7A5F8FFF718
:104BE000CBF8FFF7F1F8FEF7EFFFFFF731F9FBF72E
:104BF00013FCFEF789FE40F26010C2F20000FEF7DF
:104C0000ABF940F2A810C2F200000421FEF7EEFB5F
:104C1000029A40F60000C4F201004FF40071FCF764
:104C2000E7FB40F28000C2F20000FCF727F9FFE743
:104C3000FFE740F2FC10C2F20000FBF78FFCD8B196
:104C4000FFE740F2FC10C2F20000406898B9FFE7AD
:104C500040F2FC10C2F20000427A40F27001C2F24F
:104C600000010A70827A4A70C27A8A70027BCA7026
:104C7000407B087101E0FFE7DBE700F00DF900F091
:104C800035F800F0E7F840F22820C2F200000121D8
:104C9000017041600321017240F21621C2F200014D
:104CA00001910978417240F27C01C2F20001097859
:104CB000817240F2F811C2F200010978C172FBF76B
:104CC000D1FC01980078012803D1FFE700F06EF9CC
:104CD000FFE740F60000C4F201000221FCF774FB7C
:104CE0004FF46170FCF7A6F9A2E7000080B584B02C
:104CF00040F60000C4F201004FF400710122FCF7FD
:104D000077FB40F26010C2F20000016800204862A8
:104D1000FFE740F26010C2F200000068406A092814
:104D200001D8FFE7F5E740F60000C4F201004FF4B8
:104D300000710022FCF75CFBFCF772FB40F2F411FF
:104D4000C2F200010860FFE740F60000C4F2010073
:104D50004FF48071FCF720FB01460020039089B9D5
:104D6000FFE740F2F410C2F2000000680A3002903F
:104D7000FCF756FB029902460020914288BF0120B1
:104D80000390FFE70398C00708B1FFE7DCE740F2B4
:104D90006010C2F200000068406A40F24021C2F296
:104DA00000010860FCF73CFB40F2F411C2F2000184
:104DB0000860FFE740F60000C4F201004FF4807184
:104DC000FCF7EAFA01460020019089B1FFE740F2C2
:104DD000F410C2F20000006832300090FCF720FBB3
:104DE000009902460020914288BF01200190FFE710
:104DF0000198C00708B1FFE7DCE740F26010C2F29B
:104E000000000068416A40F24420C2F200000160E4
:104E1000006840F24021C2F200010968401A00F027
:104E20006CFA4CF29C42CBF2200246F67203C3F6B7
:104E3000A17300F075FA00224FF0804300F0D2F821
:104E400000F02CFA40F27C01C2F20001088004B0AC
:104E500080BD000080B582B040F28000C2F2000048
:104E600001904FF47A71FBF7C7FE0198FBF774FDD0
:104E7000972807D3FFE740F2F811C2F200010120A2
:104E8000088006E040F2F811C2F20001002008801C
:104E9000FFE702B080BD000080B582B040F217216C
:104EA000C2F2000101912620FEF760FD0146019843
:104EB00040F21522C2F2000200921170FEF7DAFCF5
:104EC000009A014601981170027940F21021C2F255
:104ED00000010A71006808606420FCF7ABF80198D3
:104EE000007840F27001C2F20001097888424CD18A
:104EF000FFE740F21720C2F20000407840F2700154
:104F0000C2F20001497888423FD1FFE740F2172002
:104F1000C2F20000807840F27001C2F2000189788C
:104F2000884232D1FFE740F21720C2F20000C07879
:104F300040F27001C2F20001C978884225D1FFE732
:104F400040F21720C2F20000007940F27001C2F274
:104F500000010979884218D1FFE740F21620C2F219
:104F600000000122027040F60000C4F2010004219A
:104F7000FCF73EFA40F21721C2F20001002008704F
:104F800048708870C87008710DE040F21620C2F2B7
:104F900000000022027040F60000C4F2010004216B
:104FA000FCF726FAFFE702B080BD000080B582B0B2
:104FB000FA200190FFE7019840F2E14188420FDCBE
:104FC000FFE7019840F2A811C2F200010968886366
:104FD0000220FCF72FF8FFE7019801300190EAE783
:104FE00002B080BD2DE9C04130B4DFF8A8C23CEA70
:104FF000111418BF3CEA131400F0F0801CEA1114DD
:1050000081EA030544EAD57418BF1CEA131500F0C1
:10501000CB80A4EB050404F17F7404F500344FF059
:10502000004545EAC12145EAC32341EA505143EA1C
:1050300052534FEAC0204FEAC222994208BF904221
:1050400000F0A0804FEA13650FF24816765D4FEA34
:10505000134506FB05F7C7F1807706FB07F74FEA14
:10506000D737A7FB03687642A7FB06CEC8F5803882
:1050700038BFA8F1010807FB08E6A6FB028C4FF039
:10508000000EE6FB03CED8F100086FEA0C0C5CF1D1
:10509000000C6FEA0E0E4EF1004EA6FB0C584FF0BE
:1050A0000007E6FB0E87A1FB08C6A0FB07CE16EBA8
:1050B0000E064FF0000545F10005E1FB076515F10F
:1050C000E04E7EBFA4F580345FEA46066D4116F1DE
:1050D000800745F100054FEA172747EA05674FEAC1
:1050E00015254FEA0666A6F1DE46B6F1805F20D9A7
:1050F000384605EBC47124F0010C01EB0C11BCF136
:10510000FE6F02D8F0BCBDE8008124425CBF01F50F
:10511000801E9EEAC47F02D4F0BCBDE80081244218
:1051200000F13980A1F1C041F0BCBDE8004100F0C0
:10513000EFB94FEAD02040EA41504FEAD1214FEA7F
:10514000D22242EA43524FEAD323A7FB028607FB4F
:10515000036605FB02661EEA0E0F58BFA6EB00565B
:10516000B6EB00564FEA520E4EEAC37E18EB0E0E17
:1051700056EB530EBCD518EB02085E417F1C55F16F
:105180000005B5E74FF480154FF000074FF000061B
:105190004FF00008ACE701F1C04101F000414FF0D1
:1051A0000000F0BCBDE800810CEA131511EA0C1FE9
:1051B00000D00CE013EA0C1F00F025804FF0000037
:1051C00081EA030101F00041F0BCBDE80081F0BCC0
:1051D000BDE8004181EA030100F09AB9F0BCBDE8E6
:1051E000004170B500F046F9097EFC3E00F007B8BA
:1051F0004FF0000081EA030101F00041704781EAAD
:10520000030100F085B9F0BCBDE8004122494FF030
:1052100000007047FFFDFBF9F7F5F4F2F0EEEDEB5F
:10522000E9E8E6E4E3E1E0DEDDDBDAD8D7D5D4D3A4
:10523000D1D0CFCDCCCBCAC8C7C6C5C4C2C1C0BFF0
:10524000BEBDBCBBBAB9B8B7B6B5B4B3B2B1B0AFF6
:10525000AEADACABAAA9A8A8A7A6A5A4A3A3A2A1DA
:10526000A09F9F9E9D9C9C9B9A9999989797969595
:1052700095949393929191908F8F8E8E8D8C8C8B31
:105280008B8A8989888887878685858484838382B9
:10529000828181800000FF070000F87F4FEA410310
:1052A0004FEA5353A3F58063D3F11E03C8BFD3F174
:1052B000210C0CDD4FF0004242EAC12242EA50527A
:1052C00032FA03FC8CEAE17CACEBE1707047102B06
:1052D000C4BF0020704703F5787CBCF1FF3F04D0C9
:1052E0006FF0004282EA2100704770B500F0C2F80A
:1052F0004992248000207047F2E7B0FA80F310FA58
:1053000003F10AD0C3F11D0303F580634FEA035292
:105310004FEA415002EBD12170474FF00000704737
:1053200070B5DFF848C11CEA111E1EBF1CEA131538
:105330009EEA0C0F95EA0C0F00F06F8081EA0304DF
:105340004EEAD47EAE4421EA4C1123EA4C1341F4D8
:10535000801143F48013AEF17F7EA1FB024CA0FBD1
:105360000365361955EB0C05A1FB034C4CF100030A
:10537000A0FB021C16EB0C06654153F10003094229
:1053800018BF46F0010613F4007F0BD14FEA03313A
:105390004FEA053041EA155140EA165034036FF0E8
:1053A00003020AE04FEAC3214FEAC52041EA555102
:1053B00040EA5650F4026FF0020202EB2E4201EB7B
:1053C000025585EACE710AD05FEA440C18BF24F07A
:1053D000004450F1000041F1000120EAD47040F295
:1053E000FE7C624500D270BDA84214BF4FF08044DD
:1053F0004FF04044002E08BF0024BEF1806FA8BFCC
:10540000A1F1C041BDE8704080F2828001F1C0414D
:1054100001F000414FF0000070470CEA13159EEABE
:105420000C0F18BF95EA0C0F06D081EA030E4FF05F
:1054300000000EF0004170BD00F01CF88900013E34
:1054400000F007B800F009B84FEA430C5FEA5C5C73
:1054500008D081EA030100F05BB84FEA410C5FEA33
:105460005C5CF6D102494FF0000070470000FF0776
:105470000000F87F0EF1020E2EF0030E5EF8046BB2
:10548000364205D4012A43EB030515F5001F12D857
:10549000012841EB010C1CF5001F0CD80ED14FEA7E
:1054A000D17C0CEB4C0C0CF1020C15F5001F08BF65
:1054B0004CEBD37C04E04FF0080C01E04FEAD37CC6
:1054C0000CEB4C0526FA05F606F00706B6F1040CBF
:1054D00006D20EEB860CBDE870404CF0010C604724
:1054E000DFE80CF0090B02024FF00041A1F50021AA
:1054F0004FF0000070BD19461046012851EB010421
:1055000018BFD4F5001484BF002001F0004170BD25
:105510000808A0F500114FEA3101704700000000B3
:105520000000000001020304060708090000000053
:105530000102030402030405060708090A0B0C0D07
:105540000E0F1010010202030405060708090A0BDA
:105550000C0D0E0F101001027855000800000020FD
:1055600010000000500100088855000810000020BD
:10557000380800007001000800127A0001000000E5
:08558000100000000000000013
:04000005080000ED02
:00000001FF
